{"contracts/KeepersCounter.sol":{"KeepersCounter":{"abi":[{"inputs":[{"internalType":"uint256","name":"updateInterval","type":"uint256"}],"stateMutability":"nonpayable","type":"constructor"},{"inputs":[{"internalType":"bytes","name":"","type":"bytes"}],"name":"checkUpkeep","outputs":[{"internalType":"bool","name":"upkeepNeeded","type":"bool"},{"internalType":"bytes","name":"","type":"bytes"}],"stateMutability":"view","type":"function"},{"inputs":[],"name":"counter","outputs":[{"internalType":"uint256","name":"","type":"uint256"}],"stateMutability":"view","type":"function"},{"inputs":[],"name":"interval","outputs":[{"internalType":"uint256","name":"","type":"uint256"}],"stateMutability":"view","type":"function"},{"inputs":[],"name":"lastTimeStamp","outputs":[{"internalType":"uint256","name":"","type":"uint256"}],"stateMutability":"view","type":"function"},{"inputs":[{"internalType":"bytes","name":"","type":"bytes"}],"name":"performUpkeep","outputs":[],"stateMutability":"nonpayable","type":"function"}],"devdoc":{"kind":"dev","methods":{"constructor":{"params":{"updateInterval":"- Period of time between two counter increments expressed as UNIX timestamp value"}}},"title":"The Counter contract","version":1},"evm":{"bytecode":{"linkReferences":{},"object":"60a060405234801561001057600080fd5b5060405161078738038061078783398181016040528101906100329190610063565b80608081815250504260018190555060008081905550506100b6565b60008151905061005d8161009f565b92915050565b6000602082840312156100795761007861009a565b5b60006100878482850161004e565b91505092915050565b6000819050919050565b600080fd5b6100a881610090565b81146100b357600080fd5b50565b6080516106af6100d86000396000818161019301526101ca01526106af6000f3fe608060405234801561001057600080fd5b50600436106100575760003560e01c80633f3b3b271461005c5780634585e33b1461007a57806361bc221a146100965780636e04ff0d146100b4578063947a36fb146100e5575b600080fd5b610064610103565b6040516100719190610412565b60405180910390f35b610094600480360381019061008f91906102b2565b610109565b005b61009e610187565b6040516100ab9190610412565b60405180910390f35b6100ce60048036038101906100c991906102ff565b61018d565b6040516100dc9291906103c2565b60405180910390f35b6100ed6101c8565b6040516100fa9190610412565b60405180910390f35b60015481565b60006101236040518060200160405280600081525061018d565b50905080610166576040517f08c379a000000000000000000000000000000000000000000000000000000000815260040161015d906103f2565b60405180910390fd5b42600181905550600160005461017c91906104b0565b600081905550505050565b60005481565b600060607f0000000000000000000000000000000000000000000000000000000000000000600154426101c09190610506565b119150915091565b7f000000000000000000000000000000000000000000000000000000000000000081565b60006101ff6101fa84610452565b61042d565b90508281526020810184848401111561021b5761021a610630565b5b610226848285610550565b509392505050565b60008083601f84011261024457610243610626565b5b8235905067ffffffffffffffff81111561026157610260610621565b5b60208301915083600182028301111561027d5761027c61062b565b5b9250929050565b600082601f83011261029957610298610626565b5b81356102a98482602086016101ec565b91505092915050565b600080602083850312156102c9576102c861063a565b5b600083013567ffffffffffffffff8111156102e7576102e6610635565b5b6102f38582860161022e565b92509250509250929050565b6000602082840312156103155761031461063a565b5b600082013567ffffffffffffffff81111561033357610332610635565b5b61033f84828501610284565b91505092915050565b6103518161053a565b82525050565b600061036282610483565b61036c818561048e565b935061037c81856020860161055f565b6103858161063f565b840191505092915050565b600061039d60158361049f565b91506103a882610650565b602082019050919050565b6103bc81610546565b82525050565b60006040820190506103d76000830185610348565b81810360208301526103e98184610357565b90509392505050565b6000602082019050818103600083015261040b81610390565b9050919050565b600060208201905061042760008301846103b3565b92915050565b6000610437610448565b90506104438282610592565b919050565b6000604051905090565b600067ffffffffffffffff82111561046d5761046c6105f2565b5b6104768261063f565b9050602081019050919050565b600081519050919050565b600082825260208201905092915050565b600082825260208201905092915050565b60006104bb82610546565b91506104c683610546565b9250827fffffffffffffffffffffffffffffffffffffffffffffffffffffffffffffffff038211156104fb576104fa6105c3565b5b828201905092915050565b600061051182610546565b915061051c83610546565b92508282101561052f5761052e6105c3565b5b828203905092915050565b60008115159050919050565b6000819050919050565b82818337600083830152505050565b60005b8381101561057d578082015181840152602081019050610562565b8381111561058c576000848401525b50505050565b61059b8261063f565b810181811067ffffffffffffffff821117156105ba576105b96105f2565b5b80604052505050565b7f4e487b7100000000000000000000000000000000000000000000000000000000600052601160045260246000fd5b7f4e487b7100000000000000000000000000000000000000000000000000000000600052604160045260246000fd5b600080fd5b600080fd5b600080fd5b600080fd5b600080fd5b600080fd5b6000601f19601f8301169050919050565b7f54696d6520696e74657276616c206e6f74206d6574000000000000000000000060008201525056fea26469706673582212208bfb5eef2e1b6387d7fd77e72b208a16b4f459bc7e25442d0bb714882edb0b5864736f6c63430008070033","opcodes":"PUSH1 0xA0 PUSH1 0x40 MSTORE CALLVALUE DUP1 ISZERO PUSH2 0x10 JUMPI PUSH1 0x0 DUP1 REVERT JUMPDEST POP PUSH1 0x40 MLOAD PUSH2 0x787 CODESIZE SUB DUP1 PUSH2 0x787 DUP4 CODECOPY DUP2 DUP2 ADD PUSH1 0x40 MSTORE DUP2 ADD SWAP1 PUSH2 0x32 SWAP2 SWAP1 PUSH2 0x63 JUMP JUMPDEST DUP1 PUSH1 0x80 DUP2 DUP2 MSTORE POP POP TIMESTAMP PUSH1 0x1 DUP2 SWAP1 SSTORE POP PUSH1 0x0 DUP1 DUP2 SWAP1 SSTORE POP POP PUSH2 0xB6 JUMP JUMPDEST PUSH1 0x0 DUP2 MLOAD SWAP1 POP PUSH2 0x5D DUP2 PUSH2 0x9F JUMP JUMPDEST SWAP3 SWAP2 POP POP JUMP JUMPDEST PUSH1 0x0 PUSH1 0x20 DUP3 DUP5 SUB SLT ISZERO PUSH2 0x79 JUMPI PUSH2 0x78 PUSH2 0x9A JUMP JUMPDEST JUMPDEST PUSH1 0x0 PUSH2 0x87 DUP5 DUP3 DUP6 ADD PUSH2 0x4E JUMP JUMPDEST SWAP2 POP POP SWAP3 SWAP2 POP POP JUMP JUMPDEST PUSH1 0x0 DUP2 SWAP1 POP SWAP2 SWAP1 POP JUMP JUMPDEST PUSH1 0x0 DUP1 REVERT JUMPDEST PUSH2 0xA8 DUP2 PUSH2 0x90 JUMP JUMPDEST DUP2 EQ PUSH2 0xB3 JUMPI PUSH1 0x0 DUP1 REVERT JUMPDEST POP JUMP JUMPDEST PUSH1 0x80 MLOAD PUSH2 0x6AF PUSH2 0xD8 PUSH1 0x0 CODECOPY PUSH1 0x0 DUP2 DUP2 PUSH2 0x193 ADD MSTORE PUSH2 0x1CA ADD MSTORE PUSH2 0x6AF PUSH1 0x0 RETURN INVALID PUSH1 0x80 PUSH1 0x40 MSTORE CALLVALUE DUP1 ISZERO PUSH2 0x10 JUMPI PUSH1 0x0 DUP1 REVERT JUMPDEST POP PUSH1 0x4 CALLDATASIZE LT PUSH2 0x57 JUMPI PUSH1 0x0 CALLDATALOAD PUSH1 0xE0 SHR DUP1 PUSH4 0x3F3B3B27 EQ PUSH2 0x5C JUMPI DUP1 PUSH4 0x4585E33B EQ PUSH2 0x7A JUMPI DUP1 PUSH4 0x61BC221A EQ PUSH2 0x96 JUMPI DUP1 PUSH4 0x6E04FF0D EQ PUSH2 0xB4 JUMPI DUP1 PUSH4 0x947A36FB EQ PUSH2 0xE5 JUMPI JUMPDEST PUSH1 0x0 DUP1 REVERT JUMPDEST PUSH2 0x64 PUSH2 0x103 JUMP JUMPDEST PUSH1 0x40 MLOAD PUSH2 0x71 SWAP2 SWAP1 PUSH2 0x412 JUMP JUMPDEST PUSH1 0x40 MLOAD DUP1 SWAP2 SUB SWAP1 RETURN JUMPDEST PUSH2 0x94 PUSH1 0x4 DUP1 CALLDATASIZE SUB DUP2 ADD SWAP1 PUSH2 0x8F SWAP2 SWAP1 PUSH2 0x2B2 JUMP JUMPDEST PUSH2 0x109 JUMP JUMPDEST STOP JUMPDEST PUSH2 0x9E PUSH2 0x187 JUMP JUMPDEST PUSH1 0x40 MLOAD PUSH2 0xAB SWAP2 SWAP1 PUSH2 0x412 JUMP JUMPDEST PUSH1 0x40 MLOAD DUP1 SWAP2 SUB SWAP1 RETURN JUMPDEST PUSH2 0xCE PUSH1 0x4 DUP1 CALLDATASIZE SUB DUP2 ADD SWAP1 PUSH2 0xC9 SWAP2 SWAP1 PUSH2 0x2FF JUMP JUMPDEST PUSH2 0x18D JUMP JUMPDEST PUSH1 0x40 MLOAD PUSH2 0xDC SWAP3 SWAP2 SWAP1 PUSH2 0x3C2 JUMP JUMPDEST PUSH1 0x40 MLOAD DUP1 SWAP2 SUB SWAP1 RETURN JUMPDEST PUSH2 0xED PUSH2 0x1C8 JUMP JUMPDEST PUSH1 0x40 MLOAD PUSH2 0xFA SWAP2 SWAP1 PUSH2 0x412 JUMP JUMPDEST PUSH1 0x40 MLOAD DUP1 SWAP2 SUB SWAP1 RETURN JUMPDEST PUSH1 0x1 SLOAD DUP2 JUMP JUMPDEST PUSH1 0x0 PUSH2 0x123 PUSH1 0x40 MLOAD DUP1 PUSH1 0x20 ADD PUSH1 0x40 MSTORE DUP1 PUSH1 0x0 DUP2 MSTORE POP PUSH2 0x18D JUMP JUMPDEST POP SWAP1 POP DUP1 PUSH2 0x166 JUMPI PUSH1 0x40 MLOAD PUSH32 0x8C379A000000000000000000000000000000000000000000000000000000000 DUP2 MSTORE PUSH1 0x4 ADD PUSH2 0x15D SWAP1 PUSH2 0x3F2 JUMP JUMPDEST PUSH1 0x40 MLOAD DUP1 SWAP2 SUB SWAP1 REVERT JUMPDEST TIMESTAMP PUSH1 0x1 DUP2 SWAP1 SSTORE POP PUSH1 0x1 PUSH1 0x0 SLOAD PUSH2 0x17C SWAP2 SWAP1 PUSH2 0x4B0 JUMP JUMPDEST PUSH1 0x0 DUP2 SWAP1 SSTORE POP POP POP POP JUMP JUMPDEST PUSH1 0x0 SLOAD DUP2 JUMP JUMPDEST PUSH1 0x0 PUSH1 0x60 PUSH32 0x0 PUSH1 0x1 SLOAD TIMESTAMP PUSH2 0x1C0 SWAP2 SWAP1 PUSH2 0x506 JUMP JUMPDEST GT SWAP2 POP SWAP2 POP SWAP2 JUMP JUMPDEST PUSH32 0x0 DUP2 JUMP JUMPDEST PUSH1 0x0 PUSH2 0x1FF PUSH2 0x1FA DUP5 PUSH2 0x452 JUMP JUMPDEST PUSH2 0x42D JUMP JUMPDEST SWAP1 POP DUP3 DUP2 MSTORE PUSH1 0x20 DUP2 ADD DUP5 DUP5 DUP5 ADD GT ISZERO PUSH2 0x21B JUMPI PUSH2 0x21A PUSH2 0x630 JUMP JUMPDEST JUMPDEST PUSH2 0x226 DUP5 DUP3 DUP6 PUSH2 0x550 JUMP JUMPDEST POP SWAP4 SWAP3 POP POP POP JUMP JUMPDEST PUSH1 0x0 DUP1 DUP4 PUSH1 0x1F DUP5 ADD SLT PUSH2 0x244 JUMPI PUSH2 0x243 PUSH2 0x626 JUMP JUMPDEST JUMPDEST DUP3 CALLDATALOAD SWAP1 POP PUSH8 0xFFFFFFFFFFFFFFFF DUP2 GT ISZERO PUSH2 0x261 JUMPI PUSH2 0x260 PUSH2 0x621 JUMP JUMPDEST JUMPDEST PUSH1 0x20 DUP4 ADD SWAP2 POP DUP4 PUSH1 0x1 DUP3 MUL DUP4 ADD GT ISZERO PUSH2 0x27D JUMPI PUSH2 0x27C PUSH2 0x62B JUMP JUMPDEST JUMPDEST SWAP3 POP SWAP3 SWAP1 POP JUMP JUMPDEST PUSH1 0x0 DUP3 PUSH1 0x1F DUP4 ADD SLT PUSH2 0x299 JUMPI PUSH2 0x298 PUSH2 0x626 JUMP JUMPDEST JUMPDEST DUP2 CALLDATALOAD PUSH2 0x2A9 DUP5 DUP3 PUSH1 0x20 DUP7 ADD PUSH2 0x1EC JUMP JUMPDEST SWAP2 POP POP SWAP3 SWAP2 POP POP JUMP JUMPDEST PUSH1 0x0 DUP1 PUSH1 0x20 DUP4 DUP6 SUB SLT ISZERO PUSH2 0x2C9 JUMPI PUSH2 0x2C8 PUSH2 0x63A JUMP JUMPDEST JUMPDEST PUSH1 0x0 DUP4 ADD CALLDATALOAD PUSH8 0xFFFFFFFFFFFFFFFF DUP2 GT ISZERO PUSH2 0x2E7 JUMPI PUSH2 0x2E6 PUSH2 0x635 JUMP JUMPDEST JUMPDEST PUSH2 0x2F3 DUP6 DUP3 DUP7 ADD PUSH2 0x22E JUMP JUMPDEST SWAP3 POP SWAP3 POP POP SWAP3 POP SWAP3 SWAP1 POP JUMP JUMPDEST PUSH1 0x0 PUSH1 0x20 DUP3 DUP5 SUB SLT ISZERO PUSH2 0x315 JUMPI PUSH2 0x314 PUSH2 0x63A JUMP JUMPDEST JUMPDEST PUSH1 0x0 DUP3 ADD CALLDATALOAD PUSH8 0xFFFFFFFFFFFFFFFF DUP2 GT ISZERO PUSH2 0x333 JUMPI PUSH2 0x332 PUSH2 0x635 JUMP JUMPDEST JUMPDEST PUSH2 0x33F DUP5 DUP3 DUP6 ADD PUSH2 0x284 JUMP JUMPDEST SWAP2 POP POP SWAP3 SWAP2 POP POP JUMP JUMPDEST PUSH2 0x351 DUP2 PUSH2 0x53A JUMP JUMPDEST DUP3 MSTORE POP POP JUMP JUMPDEST PUSH1 0x0 PUSH2 0x362 DUP3 PUSH2 0x483 JUMP JUMPDEST PUSH2 0x36C DUP2 DUP6 PUSH2 0x48E JUMP JUMPDEST SWAP4 POP PUSH2 0x37C DUP2 DUP6 PUSH1 0x20 DUP7 ADD PUSH2 0x55F JUMP JUMPDEST PUSH2 0x385 DUP2 PUSH2 0x63F JUMP JUMPDEST DUP5 ADD SWAP2 POP POP SWAP3 SWAP2 POP POP JUMP JUMPDEST PUSH1 0x0 PUSH2 0x39D PUSH1 0x15 DUP4 PUSH2 0x49F JUMP JUMPDEST SWAP2 POP PUSH2 0x3A8 DUP3 PUSH2 0x650 JUMP JUMPDEST PUSH1 0x20 DUP3 ADD SWAP1 POP SWAP2 SWAP1 POP JUMP JUMPDEST PUSH2 0x3BC DUP2 PUSH2 0x546 JUMP JUMPDEST DUP3 MSTORE POP POP JUMP JUMPDEST PUSH1 0x0 PUSH1 0x40 DUP3 ADD SWAP1 POP PUSH2 0x3D7 PUSH1 0x0 DUP4 ADD DUP6 PUSH2 0x348 JUMP JUMPDEST DUP2 DUP2 SUB PUSH1 0x20 DUP4 ADD MSTORE PUSH2 0x3E9 DUP2 DUP5 PUSH2 0x357 JUMP JUMPDEST SWAP1 POP SWAP4 SWAP3 POP POP POP JUMP JUMPDEST PUSH1 0x0 PUSH1 0x20 DUP3 ADD SWAP1 POP DUP2 DUP2 SUB PUSH1 0x0 DUP4 ADD MSTORE PUSH2 0x40B DUP2 PUSH2 0x390 JUMP JUMPDEST SWAP1 POP SWAP2 SWAP1 POP JUMP JUMPDEST PUSH1 0x0 PUSH1 0x20 DUP3 ADD SWAP1 POP PUSH2 0x427 PUSH1 0x0 DUP4 ADD DUP5 PUSH2 0x3B3 JUMP JUMPDEST SWAP3 SWAP2 POP POP JUMP JUMPDEST PUSH1 0x0 PUSH2 0x437 PUSH2 0x448 JUMP JUMPDEST SWAP1 POP PUSH2 0x443 DUP3 DUP3 PUSH2 0x592 JUMP JUMPDEST SWAP2 SWAP1 POP JUMP JUMPDEST PUSH1 0x0 PUSH1 0x40 MLOAD SWAP1 POP SWAP1 JUMP JUMPDEST PUSH1 0x0 PUSH8 0xFFFFFFFFFFFFFFFF DUP3 GT ISZERO PUSH2 0x46D JUMPI PUSH2 0x46C PUSH2 0x5F2 JUMP JUMPDEST JUMPDEST PUSH2 0x476 DUP3 PUSH2 0x63F JUMP JUMPDEST SWAP1 POP PUSH1 0x20 DUP2 ADD SWAP1 POP SWAP2 SWAP1 POP JUMP JUMPDEST PUSH1 0x0 DUP2 MLOAD SWAP1 POP SWAP2 SWAP1 POP JUMP JUMPDEST PUSH1 0x0 DUP3 DUP3 MSTORE PUSH1 0x20 DUP3 ADD SWAP1 POP SWAP3 SWAP2 POP POP JUMP JUMPDEST PUSH1 0x0 DUP3 DUP3 MSTORE PUSH1 0x20 DUP3 ADD SWAP1 POP SWAP3 SWAP2 POP POP JUMP JUMPDEST PUSH1 0x0 PUSH2 0x4BB DUP3 PUSH2 0x546 JUMP JUMPDEST SWAP2 POP PUSH2 0x4C6 DUP4 PUSH2 0x546 JUMP JUMPDEST SWAP3 POP DUP3 PUSH32 0xFFFFFFFFFFFFFFFFFFFFFFFFFFFFFFFFFFFFFFFFFFFFFFFFFFFFFFFFFFFFFFFF SUB DUP3 GT ISZERO PUSH2 0x4FB JUMPI PUSH2 0x4FA PUSH2 0x5C3 JUMP JUMPDEST JUMPDEST DUP3 DUP3 ADD SWAP1 POP SWAP3 SWAP2 POP POP JUMP JUMPDEST PUSH1 0x0 PUSH2 0x511 DUP3 PUSH2 0x546 JUMP JUMPDEST SWAP2 POP PUSH2 0x51C DUP4 PUSH2 0x546 JUMP JUMPDEST SWAP3 POP DUP3 DUP3 LT ISZERO PUSH2 0x52F JUMPI PUSH2 0x52E PUSH2 0x5C3 JUMP JUMPDEST JUMPDEST DUP3 DUP3 SUB SWAP1 POP SWAP3 SWAP2 POP POP JUMP JUMPDEST PUSH1 0x0 DUP2 ISZERO ISZERO SWAP1 POP SWAP2 SWAP1 POP JUMP JUMPDEST PUSH1 0x0 DUP2 SWAP1 POP SWAP2 SWAP1 POP JUMP JUMPDEST DUP3 DUP2 DUP4 CALLDATACOPY PUSH1 0x0 DUP4 DUP4 ADD MSTORE POP POP POP JUMP JUMPDEST PUSH1 0x0 JUMPDEST DUP4 DUP2 LT ISZERO PUSH2 0x57D JUMPI DUP1 DUP3 ADD MLOAD DUP2 DUP5 ADD MSTORE PUSH1 0x20 DUP2 ADD SWAP1 POP PUSH2 0x562 JUMP JUMPDEST DUP4 DUP2 GT ISZERO PUSH2 0x58C JUMPI PUSH1 0x0 DUP5 DUP5 ADD MSTORE JUMPDEST POP POP POP POP JUMP JUMPDEST PUSH2 0x59B DUP3 PUSH2 0x63F JUMP JUMPDEST DUP2 ADD DUP2 DUP2 LT PUSH8 0xFFFFFFFFFFFFFFFF DUP3 GT OR ISZERO PUSH2 0x5BA JUMPI PUSH2 0x5B9 PUSH2 0x5F2 JUMP JUMPDEST JUMPDEST DUP1 PUSH1 0x40 MSTORE POP POP POP JUMP JUMPDEST PUSH32 0x4E487B7100000000000000000000000000000000000000000000000000000000 PUSH1 0x0 MSTORE PUSH1 0x11 PUSH1 0x4 MSTORE PUSH1 0x24 PUSH1 0x0 REVERT JUMPDEST PUSH32 0x4E487B7100000000000000000000000000000000000000000000000000000000 PUSH1 0x0 MSTORE PUSH1 0x41 PUSH1 0x4 MSTORE PUSH1 0x24 PUSH1 0x0 REVERT JUMPDEST PUSH1 0x0 DUP1 REVERT JUMPDEST PUSH1 0x0 DUP1 REVERT JUMPDEST PUSH1 0x0 DUP1 REVERT JUMPDEST PUSH1 0x0 DUP1 REVERT JUMPDEST PUSH1 0x0 DUP1 REVERT JUMPDEST PUSH1 0x0 DUP1 REVERT JUMPDEST PUSH1 0x0 PUSH1 0x1F NOT PUSH1 0x1F DUP4 ADD AND SWAP1 POP SWAP2 SWAP1 POP JUMP JUMPDEST PUSH32 0x54696D6520696E74657276616C206E6F74206D65740000000000000000000000 PUSH1 0x0 DUP3 ADD MSTORE POP JUMP INVALID LOG2 PUSH5 0x6970667358 0x22 SLT KECCAK256 DUP12 0xFB 0x5E 0xEF 0x2E SHL PUSH4 0x87D7FD77 0xE7 0x2B KECCAK256 DUP11 AND 0xB4 DELEGATECALL MSIZE 0xBC PUSH31 0x25442D0BB714882EDB0B5864736F6C63430008070033000000000000000000 "},"gasEstimates":{"creation":{"codeDepositCost":"342200","executionCost":"infinite","totalCost":"infinite"},"external":{"checkUpkeep(bytes)":"infinite","counter()":"2451","interval()":"infinite","lastTimeStamp()":"2407","performUpkeep(bytes)":"infinite"}},"methodIdentifiers":{"checkUpkeep(bytes)":"6e04ff0d","counter()":"61bc221a","interval()":"947a36fb","lastTimeStamp()":"3f3b3b27","performUpkeep(bytes)":"4585e33b"}},"storageLayout":{"storage":[{"astId":3120,"contract":"contracts/KeepersCounter.sol:KeepersCounter","label":"counter","offset":0,"slot":"0","type":"t_uint256"},{"astId":3125,"contract":"contracts/KeepersCounter.sol:KeepersCounter","label":"lastTimeStamp","offset":0,"slot":"1","type":"t_uint256"}],"types":{"t_uint256":{"encoding":"inplace","label":"uint256","numberOfBytes":"32"}}},"userdoc":{"kind":"user","methods":{"checkUpkeep(bytes)":{"notice":"Checks if the contract requires work to be done"},"constructor":{"notice":"Executes once when a contract is created to initialize state variables"},"counter()":{"notice":"Public counter variable"},"interval()":{"notice":"Use an interval in seconds and a timestamp to slow execution of Upkeep"},"performUpkeep(bytes)":{"notice":"Performs the work on the contract, if instructed by :checkUpkeep():"}},"notice":"A keeper-compatible contract that increments counter variable at fixed time intervals","version":1}}}}