{"contracts/APIConsumer.sol":{"APIConsumer":{"abi":[{"inputs":[{"internalType":"address","name":"_oracle","type":"address"},{"internalType":"bytes32","name":"_jobId","type":"bytes32"},{"internalType":"uint256","name":"_fee","type":"uint256"},{"internalType":"address","name":"_link","type":"address"}],"stateMutability":"nonpayable","type":"constructor"},{"anonymous":false,"inputs":[{"indexed":true,"internalType":"bytes32","name":"id","type":"bytes32"}],"name":"ChainlinkCancelled","type":"event"},{"anonymous":false,"inputs":[{"indexed":true,"internalType":"bytes32","name":"id","type":"bytes32"}],"name":"ChainlinkFulfilled","type":"event"},{"anonymous":false,"inputs":[{"indexed":true,"internalType":"bytes32","name":"id","type":"bytes32"}],"name":"ChainlinkRequested","type":"event"},{"anonymous":false,"inputs":[{"indexed":false,"internalType":"uint256","name":"volume","type":"uint256"}],"name":"DataFullfilled","type":"event"},{"inputs":[{"internalType":"bytes32","name":"_requestId","type":"bytes32"},{"internalType":"uint256","name":"_volume","type":"uint256"}],"name":"fulfill","outputs":[],"stateMutability":"nonpayable","type":"function"},{"inputs":[],"name":"requestVolumeData","outputs":[{"internalType":"bytes32","name":"requestId","type":"bytes32"}],"stateMutability":"nonpayable","type":"function"},{"inputs":[],"name":"volume","outputs":[{"internalType":"uint256","name":"","type":"uint256"}],"stateMutability":"view","type":"function"},{"inputs":[],"name":"withdrawLink","outputs":[],"stateMutability":"nonpayable","type":"function"}],"devdoc":{"kind":"dev","methods":{"constructor":{"params":{"_fee":"- node operator price per API call / data request","_jobId":"- specific job for :_oracle: to run; each job is unique and returns different types of data","_link":"- LINK token address on the corresponding network Network: Goerli Oracle: 0xCC79157eb46F5624204f47AB42b3906cAA40eaB7 Job ID: ca98366cc7314957b8c012c72f05aeeb Fee: 0.1 LINK","_oracle":"- address of the specific Chainlink node that a contract makes an API call from"}},"fulfill(bytes32,uint256)":{"params":{"_requestId":"- id of the request","_volume":"- response; requested 24h trading volume of ETH in USD"}},"requestVolumeData()":{"returns":{"requestId":"- id of the request"}},"withdrawLink()":{"details":"Implement a withdraw function to avoid locking your LINK in the contract"}},"title":"The APIConsumer contract","version":1},"evm":{"bytecode":{"linkReferences":{},"object":"60e060405260016004553480156200001657600080fd5b5060405162001b0338038062001b0383398181016040528101906200003c91906200024e565b600073ffffffffffffffffffffffffffffffffffffffff168173ffffffffffffffffffffffffffffffffffffffff161415620000885762000082620000eb60201b60201c565b6200009a565b62000099816200019360201b60201c565b5b8373ffffffffffffffffffffffffffffffffffffffff1660808173ffffffffffffffffffffffffffffffffffffffff1660601b815250508260a081815250508160c08181525050505050506200035b565b6200019173c89bd4e1632d3a43cb03aaad5262cbe4038bc57173ffffffffffffffffffffffffffffffffffffffff166338cc48316040518163ffffffff1660e01b815260040160206040518083038186803b1580156200014a57600080fd5b505afa1580156200015f573d6000803e3d6000fd5b505050506040513d601f19601f820116820180604052508101906200018591906200021c565b6200019360201b60201c565b565b80600260006101000a81548173ffffffffffffffffffffffffffffffffffffffff021916908373ffffffffffffffffffffffffffffffffffffffff16021790555050565b600081519050620001e8816200030d565b92915050565b600081519050620001ff8162000327565b92915050565b600081519050620002168162000341565b92915050565b60006020828403121562000235576200023462000308565b5b60006200024584828501620001d7565b91505092915050565b600080600080608085870312156200026b576200026a62000308565b5b60006200027b87828801620001d7565b94505060206200028e87828801620001ee565b9350506040620002a18782880162000205565b9250506060620002b487828801620001d7565b91505092959194509250565b6000620002cd82620002de565b9050919050565b6000819050919050565b600073ffffffffffffffffffffffffffffffffffffffff82169050919050565b6000819050919050565b600080fd5b6200031881620002c0565b81146200032457600080fd5b50565b6200033281620002d4565b81146200033e57600080fd5b50565b6200034c81620002fe565b81146200035857600080fd5b50565b60805160601c60a05160c0516117756200038e6000396000610393015260006102050152600061037101526117756000f3fe608060405234801561001057600080fd5b506004361061004c5760003560e01c80634357855e146100515780636021abac1461006d5780638dc654a21461008b578063c618a1e414610095575b600080fd5b61006b60048036038101906100669190610e91565b6100b3565b005b6100756101fd565b60405161008291906110a9565b60405180910390f35b6100936103be565b005b61009d6103c0565b6040516100aa9190611104565b60405180910390f35b816005600082815260200190815260200160002060009054906101000a900473ffffffffffffffffffffffffffffffffffffffff1673ffffffffffffffffffffffffffffffffffffffff163373ffffffffffffffffffffffffffffffffffffffff1614610155576040517f08c379a000000000000000000000000000000000000000000000000000000000815260040161014c906110e4565b60405180910390fd5b6005600082815260200190815260200160002060006101000a81549073ffffffffffffffffffffffffffffffffffffffff0219169055807f7cc135e0cebb02c3480ae5d74d377283180a2601f8f644edf7987b009316c63a60405160405180910390a2816006819055507f221d507243adddffe789060be0e69bff4be830996c6b265bfda5083d86f886326006546040516101f09190611104565b60405180910390a1505050565b6000806102327f000000000000000000000000000000000000000000000000000000000000000030634357855e60e01b6103c6565b90506102966040518060400160405280600381526020017f67657400000000000000000000000000000000000000000000000000000000008152506040518060800160405280604981526020016116f760499139836103f79092919063ffffffff16565b6103156040518060400160405280600481526020017f70617468000000000000000000000000000000000000000000000000000000008152506040518060400160405280601881526020017f5241572c4554482c5553442c564f4c554d453234484f55520000000000000000815250836103f79092919063ffffffff16565b6000670de0b6b3a7640000905061036c6040518060400160405280600581526020017f74696d6573000000000000000000000000000000000000000000000000000000815250828461042a9092919063ffffffff16565b6103b77f0000000000000000000000000000000000000000000000000000000000000000837f000000000000000000000000000000000000000000000000000000000000000061045d565b9250505090565b565b60065481565b6103ce610d9e565b6103d6610d9e565b6103ed85858584610529909392919063ffffffff16565b9150509392505050565b61040e8284608001516105d990919063ffffffff16565b6104258184608001516105d990919063ffffffff16565b505050565b6104418284608001516105d990919063ffffffff16565b6104588184608001516105fe90919063ffffffff16565b505050565b6000806004549050600181610472919061114c565b6004819055506000634042994660e01b60008087600001513089604001518760018c60800151600001516040516024016104b3989796959493929190610fe6565b604051602081830303815290604052907bffffffffffffffffffffffffffffffffffffffffffffffffffffffff19166020820180517bffffffffffffffffffffffffffffffffffffffffffffffffffffffff8381831617835250505050905061051e868386846106ab565b925050509392505050565b610531610d9e565b610541856080015161010061084f565b508385600001818152505082856020019073ffffffffffffffffffffffffffffffffffffffff16908173ffffffffffffffffffffffffffffffffffffffff16815250508185604001907bffffffffffffffffffffffffffffffffffffffffffffffffffffffff191690817bffffffffffffffffffffffffffffffffffffffffffffffffffffffff191681525050849050949350505050565b6105e682600383516108b9565b6105f98183610a3e90919063ffffffff16565b505050565b7fffffffffffffffffffffffffffffffffffffffffffffffff0000000000000000811215610635576106308282610a60565b6106a7565b67ffffffffffffffff8113156106545761064f8282610ad7565b6106a6565b6000811261066d57610668826000836108b9565b6106a5565b6106a4826001837fffffffffffffffffffffffffffffffffffffffffffffffffffffffffffffffff61069f919061136d565b6108b9565b5b5b5b5050565b600030846040516020016106c0929190610fba565b604051602081830303815290604052805190602001209050846005600083815260200190815260200160002060006101000a81548173ffffffffffffffffffffffffffffffffffffffff021916908373ffffffffffffffffffffffffffffffffffffffff160217905550807fb5e6e01e79f91267dc17b4e6314d5d4d03593d2ceee0fbb452b750bd70ea5af960405160405180910390a2600260009054906101000a900473ffffffffffffffffffffffffffffffffffffffff1673ffffffffffffffffffffffffffffffffffffffff16634000aea08685856040518463ffffffff1660e01b81526004016107b69392919061106b565b602060405180830381600087803b1580156107d057600080fd5b505af11580156107e4573d6000803e3d6000fd5b505050506040513d601f19601f820116820180604052508101906108089190610e64565b610847576040517f08c379a000000000000000000000000000000000000000000000000000000000815260040161083e906110c4565b60405180910390fd5b949350505050565b610857610e0b565b60006020836108669190611554565b14610892576020826108789190611554565b60206108849190611401565b8261088f919061114c565b91505b81836020018181525050604051808452600081528281016020016040525082905092915050565b60178167ffffffffffffffff16116108f0576108ea8160058460ff16901b60ff161784610b2390919063ffffffff16565b50610a39565b60ff8167ffffffffffffffff16116109465761091f601860058460ff16901b1784610b2390919063ffffffff16565b506109408167ffffffffffffffff16600185610b439092919063ffffffff16565b50610a38565b61ffff8167ffffffffffffffff161161099d57610976601960058460ff16901b1784610b2390919063ffffffff16565b506109978167ffffffffffffffff16600285610b439092919063ffffffff16565b50610a37565b63ffffffff8167ffffffffffffffff16116109f6576109cf601a60058460ff16901b1784610b2390919063ffffffff16565b506109f08167ffffffffffffffff16600485610b439092919063ffffffff16565b50610a36565b610a13601b60058460ff16901b1784610b2390919063ffffffff16565b50610a348167ffffffffffffffff16600885610b439092919063ffffffff16565b505b5b5b5b505050565b610a46610e0b565b610a5883846000015151848551610b65565b905092915050565b610a7e60036005600660ff16901b1783610b2390919063ffffffff16565b50610ad382827fffffffffffffffffffffffffffffffffffffffffffffffffffffffffffffffff610aaf919061136d565b604051602001610abf9190611104565b604051602081830303815290604052610c54565b5050565b610af560026005600660ff16901b1783610b2390919063ffffffff16565b50610b1f8282604051602001610b0b9190611104565b604051602081830303815290604052610c54565b5050565b610b2b610e0b565b610b3b8384600001515184610c79565b905092915050565b610b4b610e0b565b610b5c848560000151518585610cd0565b90509392505050565b610b6d610e0b565b8251821115610b7b57600080fd5b84602001518285610b8c919061114c565b1115610bc157610bc0856002610bb188602001518887610bac919061114c565b610d5e565b610bbb9190611313565b610d7a565b5b600080865180518760208301019350808887011115610be05787860182525b60208701925050505b60208410610c275780518252602082610c02919061114c565b9150602081610c11919061114c565b9050602084610c209190611401565b9350610be9565b60006001856020036101000a03905080198251168184511681811785525050508692505050949350505050565b610c6182600283516108b9565b610c748183610a3e90919063ffffffff16565b505050565b610c81610e0b565b83602001518310610ca757610ca68460028660200151610ca19190611313565b610d7a565b5b8351805160208583010184815381861415610cc3576001820183525b5050508390509392505050565b610cd8610e0b565b84602001518483610ce9919061114c565b1115610d1157610d108560028685610d01919061114c565b610d0b9190611313565b610d7a565b5b6000600183610100610d2391906111f5565b610d2d9190611401565b90508551838682010185831982511617815281518588011115610d505784870182525b505085915050949350505050565b600081831115610d7057829050610d74565b8190505b92915050565b600082600001519050610d8d838361084f565b50610d988382610a3e565b50505050565b6040518060a0016040528060008019168152602001600073ffffffffffffffffffffffffffffffffffffffff16815260200160007bffffffffffffffffffffffffffffffffffffffffffffffffffffffff1916815260200160008152602001610e05610e0b565b81525090565b604051806040016040528060608152602001600081525090565b600081519050610e34816116b1565b92915050565b600081359050610e49816116c8565b92915050565b600081359050610e5e816116df565b92915050565b600060208284031215610e7a57610e796115e3565b5b6000610e8884828501610e25565b91505092915050565b60008060408385031215610ea857610ea76115e3565b5b6000610eb685828601610e3a565b9250506020610ec785828601610e4f565b9150509250929050565b610eda81611435565b82525050565b610ee981611453565b82525050565b610ef88161145d565b82525050565b6000610f098261111f565b610f13818561112a565b9350610f238185602086016114f3565b610f2c816115e8565b840191505092915050565b610f48610f43826114bd565b611526565b82525050565b6000610f5b60238361113b565b9150610f6682611613565b604082019050919050565b6000610f7e60288361113b565b9150610f8982611662565b604082019050919050565b610f9d816114b3565b82525050565b610fb4610faf826114b3565b61154a565b82525050565b6000610fc68285610f37565b601482019150610fd68284610fa3565b6020820191508190509392505050565b600061010082019050610ffc600083018b610ed1565b611009602083018a610f94565b6110166040830189610ee0565b6110236060830188610ed1565b6110306080830187610eef565b61103d60a0830186610f94565b61104a60c0830185610f94565b81810360e083015261105c8184610efe565b90509998505050505050505050565b60006060820190506110806000830186610ed1565b61108d6020830185610f94565b818103604083015261109f8184610efe565b9050949350505050565b60006020820190506110be6000830184610ee0565b92915050565b600060208201905081810360008301526110dd81610f4e565b9050919050565b600060208201905081810360008301526110fd81610f71565b9050919050565b60006020820190506111196000830184610f94565b92915050565b600081519050919050565b600082825260208201905092915050565b600082825260208201905092915050565b6000611157826114b3565b9150611162836114b3565b9250827fffffffffffffffffffffffffffffffffffffffffffffffffffffffffffffffff0382111561119757611196611585565b5b828201905092915050565b6000808291508390505b60018511156111ec578086048111156111c8576111c7611585565b5b60018516156111d75780820291505b80810290506111e585611606565b94506111ac565b94509492505050565b6000611200826114b3565b915061120b836114b3565b92506112387fffffffffffffffffffffffffffffffffffffffffffffffffffffffffffffffff8484611240565b905092915050565b600082611250576001905061130c565b8161125e576000905061130c565b8160018114611274576002811461127e576112ad565b600191505061130c565b60ff8411156112905761128f611585565b5b8360020a9150848211156112a7576112a6611585565b5b5061130c565b5060208310610133831016604e8410600b84101617156112e25782820a9050838111156112dd576112dc611585565b5b61130c565b6112ef84848460016111a2565b9250905081840481111561130657611305611585565b5b81810290505b9392505050565b600061131e826114b3565b9150611329836114b3565b9250817fffffffffffffffffffffffffffffffffffffffffffffffffffffffffffffffff048311821515161561136257611361611585565b5b828202905092915050565b600061137882611489565b915061138383611489565b9250827f8000000000000000000000000000000000000000000000000000000000000000018212600084121516156113be576113bd611585565b5b827f7fffffffffffffffffffffffffffffffffffffffffffffffffffffffffffffff0182136000841216156113f6576113f5611585565b5b828203905092915050565b600061140c826114b3565b9150611417836114b3565b92508282101561142a57611429611585565b5b828203905092915050565b600061144082611493565b9050919050565b60008115159050919050565b6000819050919050565b60007fffffffff0000000000000000000000000000000000000000000000000000000082169050919050565b6000819050919050565b600073ffffffffffffffffffffffffffffffffffffffff82169050919050565b6000819050919050565b60006114c8826114cf565b9050919050565b60006114da826114e1565b9050919050565b60006114ec82611493565b9050919050565b60005b838110156115115780820151818401526020810190506114f6565b83811115611520576000848401525b50505050565b600061153182611538565b9050919050565b6000611543826115f9565b9050919050565b6000819050919050565b600061155f826114b3565b915061156a836114b3565b92508261157a576115796115b4565b5b828206905092915050565b7f4e487b7100000000000000000000000000000000000000000000000000000000600052601160045260246000fd5b7f4e487b7100000000000000000000000000000000000000000000000000000000600052601260045260246000fd5b600080fd5b6000601f19601f8301169050919050565b60008160601b9050919050565b60008160011c9050919050565b7f756e61626c6520746f207472616e73666572416e6443616c6c20746f206f726160008201527f636c650000000000000000000000000000000000000000000000000000000000602082015250565b7f536f75726365206d75737420626520746865206f7261636c65206f662074686560008201527f2072657175657374000000000000000000000000000000000000000000000000602082015250565b6116ba81611447565b81146116c557600080fd5b50565b6116d181611453565b81146116dc57600080fd5b50565b6116e8816114b3565b81146116f357600080fd5b5056fe68747470733a2f2f6d696e2d6170692e63727970746f636f6d706172652e636f6d2f646174612f70726963656d756c746966756c6c3f6673796d733d455448267473796d733d555344a2646970667358221220b63fdcc30cbbe05a8dafcaa1049fd3d5c86abca5dc691e2728ac165b0aebce3464736f6c63430008070033","opcodes":"PUSH1 0xE0 PUSH1 0x40 MSTORE PUSH1 0x1 PUSH1 0x4 SSTORE CALLVALUE DUP1 ISZERO PUSH3 0x16 JUMPI PUSH1 0x0 DUP1 REVERT JUMPDEST POP PUSH1 0x40 MLOAD PUSH3 0x1B03 CODESIZE SUB DUP1 PUSH3 0x1B03 DUP4 CODECOPY DUP2 DUP2 ADD PUSH1 0x40 MSTORE DUP2 ADD SWAP1 PUSH3 0x3C SWAP2 SWAP1 PUSH3 0x24E JUMP JUMPDEST PUSH1 0x0 PUSH20 0xFFFFFFFFFFFFFFFFFFFFFFFFFFFFFFFFFFFFFFFF AND DUP2 PUSH20 0xFFFFFFFFFFFFFFFFFFFFFFFFFFFFFFFFFFFFFFFF AND EQ ISZERO PUSH3 0x88 JUMPI PUSH3 0x82 PUSH3 0xEB PUSH1 0x20 SHL PUSH1 0x20 SHR JUMP JUMPDEST PUSH3 0x9A JUMP JUMPDEST PUSH3 0x99 DUP2 PUSH3 0x193 PUSH1 0x20 SHL PUSH1 0x20 SHR JUMP JUMPDEST JUMPDEST DUP4 PUSH20 0xFFFFFFFFFFFFFFFFFFFFFFFFFFFFFFFFFFFFFFFF AND PUSH1 0x80 DUP2 PUSH20 0xFFFFFFFFFFFFFFFFFFFFFFFFFFFFFFFFFFFFFFFF AND PUSH1 0x60 SHL DUP2 MSTORE POP POP DUP3 PUSH1 0xA0 DUP2 DUP2 MSTORE POP POP DUP2 PUSH1 0xC0 DUP2 DUP2 MSTORE POP POP POP POP POP POP PUSH3 0x35B JUMP JUMPDEST PUSH3 0x191 PUSH20 0xC89BD4E1632D3A43CB03AAAD5262CBE4038BC571 PUSH20 0xFFFFFFFFFFFFFFFFFFFFFFFFFFFFFFFFFFFFFFFF AND PUSH4 0x38CC4831 PUSH1 0x40 MLOAD DUP2 PUSH4 0xFFFFFFFF AND PUSH1 0xE0 SHL DUP2 MSTORE PUSH1 0x4 ADD PUSH1 0x20 PUSH1 0x40 MLOAD DUP1 DUP4 SUB DUP2 DUP7 DUP1 EXTCODESIZE ISZERO DUP1 ISZERO PUSH3 0x14A JUMPI PUSH1 0x0 DUP1 REVERT JUMPDEST POP GAS STATICCALL ISZERO DUP1 ISZERO PUSH3 0x15F JUMPI RETURNDATASIZE PUSH1 0x0 DUP1 RETURNDATACOPY RETURNDATASIZE PUSH1 0x0 REVERT JUMPDEST POP POP POP POP PUSH1 0x40 MLOAD RETURNDATASIZE PUSH1 0x1F NOT PUSH1 0x1F DUP3 ADD AND DUP3 ADD DUP1 PUSH1 0x40 MSTORE POP DUP2 ADD SWAP1 PUSH3 0x185 SWAP2 SWAP1 PUSH3 0x21C JUMP JUMPDEST PUSH3 0x193 PUSH1 0x20 SHL PUSH1 0x20 SHR JUMP JUMPDEST JUMP JUMPDEST DUP1 PUSH1 0x2 PUSH1 0x0 PUSH2 0x100 EXP DUP2 SLOAD DUP2 PUSH20 0xFFFFFFFFFFFFFFFFFFFFFFFFFFFFFFFFFFFFFFFF MUL NOT AND SWAP1 DUP4 PUSH20 0xFFFFFFFFFFFFFFFFFFFFFFFFFFFFFFFFFFFFFFFF AND MUL OR SWAP1 SSTORE POP POP JUMP JUMPDEST PUSH1 0x0 DUP2 MLOAD SWAP1 POP PUSH3 0x1E8 DUP2 PUSH3 0x30D JUMP JUMPDEST SWAP3 SWAP2 POP POP JUMP JUMPDEST PUSH1 0x0 DUP2 MLOAD SWAP1 POP PUSH3 0x1FF DUP2 PUSH3 0x327 JUMP JUMPDEST SWAP3 SWAP2 POP POP JUMP JUMPDEST PUSH1 0x0 DUP2 MLOAD SWAP1 POP PUSH3 0x216 DUP2 PUSH3 0x341 JUMP JUMPDEST SWAP3 SWAP2 POP POP JUMP JUMPDEST PUSH1 0x0 PUSH1 0x20 DUP3 DUP5 SUB SLT ISZERO PUSH3 0x235 JUMPI PUSH3 0x234 PUSH3 0x308 JUMP JUMPDEST JUMPDEST PUSH1 0x0 PUSH3 0x245 DUP5 DUP3 DUP6 ADD PUSH3 0x1D7 JUMP JUMPDEST SWAP2 POP POP SWAP3 SWAP2 POP POP JUMP JUMPDEST PUSH1 0x0 DUP1 PUSH1 0x0 DUP1 PUSH1 0x80 DUP6 DUP8 SUB SLT ISZERO PUSH3 0x26B JUMPI PUSH3 0x26A PUSH3 0x308 JUMP JUMPDEST JUMPDEST PUSH1 0x0 PUSH3 0x27B DUP8 DUP3 DUP9 ADD PUSH3 0x1D7 JUMP JUMPDEST SWAP5 POP POP PUSH1 0x20 PUSH3 0x28E DUP8 DUP3 DUP9 ADD PUSH3 0x1EE JUMP JUMPDEST SWAP4 POP POP PUSH1 0x40 PUSH3 0x2A1 DUP8 DUP3 DUP9 ADD PUSH3 0x205 JUMP JUMPDEST SWAP3 POP POP PUSH1 0x60 PUSH3 0x2B4 DUP8 DUP3 DUP9 ADD PUSH3 0x1D7 JUMP JUMPDEST SWAP2 POP POP SWAP3 SWAP6 SWAP2 SWAP5 POP SWAP3 POP JUMP JUMPDEST PUSH1 0x0 PUSH3 0x2CD DUP3 PUSH3 0x2DE JUMP JUMPDEST SWAP1 POP SWAP2 SWAP1 POP JUMP JUMPDEST PUSH1 0x0 DUP2 SWAP1 POP SWAP2 SWAP1 POP JUMP JUMPDEST PUSH1 0x0 PUSH20 0xFFFFFFFFFFFFFFFFFFFFFFFFFFFFFFFFFFFFFFFF DUP3 AND SWAP1 POP SWAP2 SWAP1 POP JUMP JUMPDEST PUSH1 0x0 DUP2 SWAP1 POP SWAP2 SWAP1 POP JUMP JUMPDEST PUSH1 0x0 DUP1 REVERT JUMPDEST PUSH3 0x318 DUP2 PUSH3 0x2C0 JUMP JUMPDEST DUP2 EQ PUSH3 0x324 JUMPI PUSH1 0x0 DUP1 REVERT JUMPDEST POP JUMP JUMPDEST PUSH3 0x332 DUP2 PUSH3 0x2D4 JUMP JUMPDEST DUP2 EQ PUSH3 0x33E JUMPI PUSH1 0x0 DUP1 REVERT JUMPDEST POP JUMP JUMPDEST PUSH3 0x34C DUP2 PUSH3 0x2FE JUMP JUMPDEST DUP2 EQ PUSH3 0x358 JUMPI PUSH1 0x0 DUP1 REVERT JUMPDEST POP JUMP JUMPDEST PUSH1 0x80 MLOAD PUSH1 0x60 SHR PUSH1 0xA0 MLOAD PUSH1 0xC0 MLOAD PUSH2 0x1775 PUSH3 0x38E PUSH1 0x0 CODECOPY PUSH1 0x0 PUSH2 0x393 ADD MSTORE PUSH1 0x0 PUSH2 0x205 ADD MSTORE PUSH1 0x0 PUSH2 0x371 ADD MSTORE PUSH2 0x1775 PUSH1 0x0 RETURN INVALID PUSH1 0x80 PUSH1 0x40 MSTORE CALLVALUE DUP1 ISZERO PUSH2 0x10 JUMPI PUSH1 0x0 DUP1 REVERT JUMPDEST POP PUSH1 0x4 CALLDATASIZE LT PUSH2 0x4C JUMPI PUSH1 0x0 CALLDATALOAD PUSH1 0xE0 SHR DUP1 PUSH4 0x4357855E EQ PUSH2 0x51 JUMPI DUP1 PUSH4 0x6021ABAC EQ PUSH2 0x6D JUMPI DUP1 PUSH4 0x8DC654A2 EQ PUSH2 0x8B JUMPI DUP1 PUSH4 0xC618A1E4 EQ PUSH2 0x95 JUMPI JUMPDEST PUSH1 0x0 DUP1 REVERT JUMPDEST PUSH2 0x6B PUSH1 0x4 DUP1 CALLDATASIZE SUB DUP2 ADD SWAP1 PUSH2 0x66 SWAP2 SWAP1 PUSH2 0xE91 JUMP JUMPDEST PUSH2 0xB3 JUMP JUMPDEST STOP JUMPDEST PUSH2 0x75 PUSH2 0x1FD JUMP JUMPDEST PUSH1 0x40 MLOAD PUSH2 0x82 SWAP2 SWAP1 PUSH2 0x10A9 JUMP JUMPDEST PUSH1 0x40 MLOAD DUP1 SWAP2 SUB SWAP1 RETURN JUMPDEST PUSH2 0x93 PUSH2 0x3BE JUMP JUMPDEST STOP JUMPDEST PUSH2 0x9D PUSH2 0x3C0 JUMP JUMPDEST PUSH1 0x40 MLOAD PUSH2 0xAA SWAP2 SWAP1 PUSH2 0x1104 JUMP JUMPDEST PUSH1 0x40 MLOAD DUP1 SWAP2 SUB SWAP1 RETURN JUMPDEST DUP2 PUSH1 0x5 PUSH1 0x0 DUP3 DUP2 MSTORE PUSH1 0x20 ADD SWAP1 DUP2 MSTORE PUSH1 0x20 ADD PUSH1 0x0 KECCAK256 PUSH1 0x0 SWAP1 SLOAD SWAP1 PUSH2 0x100 EXP SWAP1 DIV PUSH20 0xFFFFFFFFFFFFFFFFFFFFFFFFFFFFFFFFFFFFFFFF AND PUSH20 0xFFFFFFFFFFFFFFFFFFFFFFFFFFFFFFFFFFFFFFFF AND CALLER PUSH20 0xFFFFFFFFFFFFFFFFFFFFFFFFFFFFFFFFFFFFFFFF AND EQ PUSH2 0x155 JUMPI PUSH1 0x40 MLOAD PUSH32 0x8C379A000000000000000000000000000000000000000000000000000000000 DUP2 MSTORE PUSH1 0x4 ADD PUSH2 0x14C SWAP1 PUSH2 0x10E4 JUMP JUMPDEST PUSH1 0x40 MLOAD DUP1 SWAP2 SUB SWAP1 REVERT JUMPDEST PUSH1 0x5 PUSH1 0x0 DUP3 DUP2 MSTORE PUSH1 0x20 ADD SWAP1 DUP2 MSTORE PUSH1 0x20 ADD PUSH1 0x0 KECCAK256 PUSH1 0x0 PUSH2 0x100 EXP DUP2 SLOAD SWAP1 PUSH20 0xFFFFFFFFFFFFFFFFFFFFFFFFFFFFFFFFFFFFFFFF MUL NOT AND SWAP1 SSTORE DUP1 PUSH32 0x7CC135E0CEBB02C3480AE5D74D377283180A2601F8F644EDF7987B009316C63A PUSH1 0x40 MLOAD PUSH1 0x40 MLOAD DUP1 SWAP2 SUB SWAP1 LOG2 DUP2 PUSH1 0x6 DUP2 SWAP1 SSTORE POP PUSH32 0x221D507243ADDDFFE789060BE0E69BFF4BE830996C6B265BFDA5083D86F88632 PUSH1 0x6 SLOAD PUSH1 0x40 MLOAD PUSH2 0x1F0 SWAP2 SWAP1 PUSH2 0x1104 JUMP JUMPDEST PUSH1 0x40 MLOAD DUP1 SWAP2 SUB SWAP1 LOG1 POP POP POP JUMP JUMPDEST PUSH1 0x0 DUP1 PUSH2 0x232 PUSH32 0x0 ADDRESS PUSH4 0x4357855E PUSH1 0xE0 SHL PUSH2 0x3C6 JUMP JUMPDEST SWAP1 POP PUSH2 0x296 PUSH1 0x40 MLOAD DUP1 PUSH1 0x40 ADD PUSH1 0x40 MSTORE DUP1 PUSH1 0x3 DUP2 MSTORE PUSH1 0x20 ADD PUSH32 0x6765740000000000000000000000000000000000000000000000000000000000 DUP2 MSTORE POP PUSH1 0x40 MLOAD DUP1 PUSH1 0x80 ADD PUSH1 0x40 MSTORE DUP1 PUSH1 0x49 DUP2 MSTORE PUSH1 0x20 ADD PUSH2 0x16F7 PUSH1 0x49 SWAP2 CODECOPY DUP4 PUSH2 0x3F7 SWAP1 SWAP3 SWAP2 SWAP1 PUSH4 0xFFFFFFFF AND JUMP JUMPDEST PUSH2 0x315 PUSH1 0x40 MLOAD DUP1 PUSH1 0x40 ADD PUSH1 0x40 MSTORE DUP1 PUSH1 0x4 DUP2 MSTORE PUSH1 0x20 ADD PUSH32 0x7061746800000000000000000000000000000000000000000000000000000000 DUP2 MSTORE POP PUSH1 0x40 MLOAD DUP1 PUSH1 0x40 ADD PUSH1 0x40 MSTORE DUP1 PUSH1 0x18 DUP2 MSTORE PUSH1 0x20 ADD PUSH32 0x5241572C4554482C5553442C564F4C554D453234484F55520000000000000000 DUP2 MSTORE POP DUP4 PUSH2 0x3F7 SWAP1 SWAP3 SWAP2 SWAP1 PUSH4 0xFFFFFFFF AND JUMP JUMPDEST PUSH1 0x0 PUSH8 0xDE0B6B3A7640000 SWAP1 POP PUSH2 0x36C PUSH1 0x40 MLOAD DUP1 PUSH1 0x40 ADD PUSH1 0x40 MSTORE DUP1 PUSH1 0x5 DUP2 MSTORE PUSH1 0x20 ADD PUSH32 0x74696D6573000000000000000000000000000000000000000000000000000000 DUP2 MSTORE POP DUP3 DUP5 PUSH2 0x42A SWAP1 SWAP3 SWAP2 SWAP1 PUSH4 0xFFFFFFFF AND JUMP JUMPDEST PUSH2 0x3B7 PUSH32 0x0 DUP4 PUSH32 0x0 PUSH2 0x45D JUMP JUMPDEST SWAP3 POP POP POP SWAP1 JUMP JUMPDEST JUMP JUMPDEST PUSH1 0x6 SLOAD DUP2 JUMP JUMPDEST PUSH2 0x3CE PUSH2 0xD9E JUMP JUMPDEST PUSH2 0x3D6 PUSH2 0xD9E JUMP JUMPDEST PUSH2 0x3ED DUP6 DUP6 DUP6 DUP5 PUSH2 0x529 SWAP1 SWAP4 SWAP3 SWAP2 SWAP1 PUSH4 0xFFFFFFFF AND JUMP JUMPDEST SWAP2 POP POP SWAP4 SWAP3 POP POP POP JUMP JUMPDEST PUSH2 0x40E DUP3 DUP5 PUSH1 0x80 ADD MLOAD PUSH2 0x5D9 SWAP1 SWAP2 SWAP1 PUSH4 0xFFFFFFFF AND JUMP JUMPDEST PUSH2 0x425 DUP2 DUP5 PUSH1 0x80 ADD MLOAD PUSH2 0x5D9 SWAP1 SWAP2 SWAP1 PUSH4 0xFFFFFFFF AND JUMP JUMPDEST POP POP POP JUMP JUMPDEST PUSH2 0x441 DUP3 DUP5 PUSH1 0x80 ADD MLOAD PUSH2 0x5D9 SWAP1 SWAP2 SWAP1 PUSH4 0xFFFFFFFF AND JUMP JUMPDEST PUSH2 0x458 DUP2 DUP5 PUSH1 0x80 ADD MLOAD PUSH2 0x5FE SWAP1 SWAP2 SWAP1 PUSH4 0xFFFFFFFF AND JUMP JUMPDEST POP POP POP JUMP JUMPDEST PUSH1 0x0 DUP1 PUSH1 0x4 SLOAD SWAP1 POP PUSH1 0x1 DUP2 PUSH2 0x472 SWAP2 SWAP1 PUSH2 0x114C JUMP JUMPDEST PUSH1 0x4 DUP2 SWAP1 SSTORE POP PUSH1 0x0 PUSH4 0x40429946 PUSH1 0xE0 SHL PUSH1 0x0 DUP1 DUP8 PUSH1 0x0 ADD MLOAD ADDRESS DUP10 PUSH1 0x40 ADD MLOAD DUP8 PUSH1 0x1 DUP13 PUSH1 0x80 ADD MLOAD PUSH1 0x0 ADD MLOAD PUSH1 0x40 MLOAD PUSH1 0x24 ADD PUSH2 0x4B3 SWAP9 SWAP8 SWAP7 SWAP6 SWAP5 SWAP4 SWAP3 SWAP2 SWAP1 PUSH2 0xFE6 JUMP JUMPDEST PUSH1 0x40 MLOAD PUSH1 0x20 DUP2 DUP4 SUB SUB DUP2 MSTORE SWAP1 PUSH1 0x40 MSTORE SWAP1 PUSH28 0xFFFFFFFFFFFFFFFFFFFFFFFFFFFFFFFFFFFFFFFFFFFFFFFFFFFFFFFF NOT AND PUSH1 0x20 DUP3 ADD DUP1 MLOAD PUSH28 0xFFFFFFFFFFFFFFFFFFFFFFFFFFFFFFFFFFFFFFFFFFFFFFFFFFFFFFFF DUP4 DUP2 DUP4 AND OR DUP4 MSTORE POP POP POP POP SWAP1 POP PUSH2 0x51E DUP7 DUP4 DUP7 DUP5 PUSH2 0x6AB JUMP JUMPDEST SWAP3 POP POP POP SWAP4 SWAP3 POP POP POP JUMP JUMPDEST PUSH2 0x531 PUSH2 0xD9E JUMP JUMPDEST PUSH2 0x541 DUP6 PUSH1 0x80 ADD MLOAD PUSH2 0x100 PUSH2 0x84F JUMP JUMPDEST POP DUP4 DUP6 PUSH1 0x0 ADD DUP2 DUP2 MSTORE POP POP DUP3 DUP6 PUSH1 0x20 ADD SWAP1 PUSH20 0xFFFFFFFFFFFFFFFFFFFFFFFFFFFFFFFFFFFFFFFF AND SWAP1 DUP2 PUSH20 0xFFFFFFFFFFFFFFFFFFFFFFFFFFFFFFFFFFFFFFFF AND DUP2 MSTORE POP POP DUP2 DUP6 PUSH1 0x40 ADD SWAP1 PUSH28 0xFFFFFFFFFFFFFFFFFFFFFFFFFFFFFFFFFFFFFFFFFFFFFFFFFFFFFFFF NOT AND SWAP1 DUP2 PUSH28 0xFFFFFFFFFFFFFFFFFFFFFFFFFFFFFFFFFFFFFFFFFFFFFFFFFFFFFFFF NOT AND DUP2 MSTORE POP POP DUP5 SWAP1 POP SWAP5 SWAP4 POP POP POP POP JUMP JUMPDEST PUSH2 0x5E6 DUP3 PUSH1 0x3 DUP4 MLOAD PUSH2 0x8B9 JUMP JUMPDEST PUSH2 0x5F9 DUP2 DUP4 PUSH2 0xA3E SWAP1 SWAP2 SWAP1 PUSH4 0xFFFFFFFF AND JUMP JUMPDEST POP POP POP JUMP JUMPDEST PUSH32 0xFFFFFFFFFFFFFFFFFFFFFFFFFFFFFFFFFFFFFFFFFFFFFFFF0000000000000000 DUP2 SLT ISZERO PUSH2 0x635 JUMPI PUSH2 0x630 DUP3 DUP3 PUSH2 0xA60 JUMP JUMPDEST PUSH2 0x6A7 JUMP JUMPDEST PUSH8 0xFFFFFFFFFFFFFFFF DUP2 SGT ISZERO PUSH2 0x654 JUMPI PUSH2 0x64F DUP3 DUP3 PUSH2 0xAD7 JUMP JUMPDEST PUSH2 0x6A6 JUMP JUMPDEST PUSH1 0x0 DUP2 SLT PUSH2 0x66D JUMPI PUSH2 0x668 DUP3 PUSH1 0x0 DUP4 PUSH2 0x8B9 JUMP JUMPDEST PUSH2 0x6A5 JUMP JUMPDEST PUSH2 0x6A4 DUP3 PUSH1 0x1 DUP4 PUSH32 0xFFFFFFFFFFFFFFFFFFFFFFFFFFFFFFFFFFFFFFFFFFFFFFFFFFFFFFFFFFFFFFFF PUSH2 0x69F SWAP2 SWAP1 PUSH2 0x136D JUMP JUMPDEST PUSH2 0x8B9 JUMP JUMPDEST JUMPDEST JUMPDEST JUMPDEST POP POP JUMP JUMPDEST PUSH1 0x0 ADDRESS DUP5 PUSH1 0x40 MLOAD PUSH1 0x20 ADD PUSH2 0x6C0 SWAP3 SWAP2 SWAP1 PUSH2 0xFBA JUMP JUMPDEST PUSH1 0x40 MLOAD PUSH1 0x20 DUP2 DUP4 SUB SUB DUP2 MSTORE SWAP1 PUSH1 0x40 MSTORE DUP1 MLOAD SWAP1 PUSH1 0x20 ADD KECCAK256 SWAP1 POP DUP5 PUSH1 0x5 PUSH1 0x0 DUP4 DUP2 MSTORE PUSH1 0x20 ADD SWAP1 DUP2 MSTORE PUSH1 0x20 ADD PUSH1 0x0 KECCAK256 PUSH1 0x0 PUSH2 0x100 EXP DUP2 SLOAD DUP2 PUSH20 0xFFFFFFFFFFFFFFFFFFFFFFFFFFFFFFFFFFFFFFFF MUL NOT AND SWAP1 DUP4 PUSH20 0xFFFFFFFFFFFFFFFFFFFFFFFFFFFFFFFFFFFFFFFF AND MUL OR SWAP1 SSTORE POP DUP1 PUSH32 0xB5E6E01E79F91267DC17B4E6314D5D4D03593D2CEEE0FBB452B750BD70EA5AF9 PUSH1 0x40 MLOAD PUSH1 0x40 MLOAD DUP1 SWAP2 SUB SWAP1 LOG2 PUSH1 0x2 PUSH1 0x0 SWAP1 SLOAD SWAP1 PUSH2 0x100 EXP SWAP1 DIV PUSH20 0xFFFFFFFFFFFFFFFFFFFFFFFFFFFFFFFFFFFFFFFF AND PUSH20 0xFFFFFFFFFFFFFFFFFFFFFFFFFFFFFFFFFFFFFFFF AND PUSH4 0x4000AEA0 DUP7 DUP6 DUP6 PUSH1 0x40 MLOAD DUP5 PUSH4 0xFFFFFFFF AND PUSH1 0xE0 SHL DUP2 MSTORE PUSH1 0x4 ADD PUSH2 0x7B6 SWAP4 SWAP3 SWAP2 SWAP1 PUSH2 0x106B JUMP JUMPDEST PUSH1 0x20 PUSH1 0x40 MLOAD DUP1 DUP4 SUB DUP2 PUSH1 0x0 DUP8 DUP1 EXTCODESIZE ISZERO DUP1 ISZERO PUSH2 0x7D0 JUMPI PUSH1 0x0 DUP1 REVERT JUMPDEST POP GAS CALL ISZERO DUP1 ISZERO PUSH2 0x7E4 JUMPI RETURNDATASIZE PUSH1 0x0 DUP1 RETURNDATACOPY RETURNDATASIZE PUSH1 0x0 REVERT JUMPDEST POP POP POP POP PUSH1 0x40 MLOAD RETURNDATASIZE PUSH1 0x1F NOT PUSH1 0x1F DUP3 ADD AND DUP3 ADD DUP1 PUSH1 0x40 MSTORE POP DUP2 ADD SWAP1 PUSH2 0x808 SWAP2 SWAP1 PUSH2 0xE64 JUMP JUMPDEST PUSH2 0x847 JUMPI PUSH1 0x40 MLOAD PUSH32 0x8C379A000000000000000000000000000000000000000000000000000000000 DUP2 MSTORE PUSH1 0x4 ADD PUSH2 0x83E SWAP1 PUSH2 0x10C4 JUMP JUMPDEST PUSH1 0x40 MLOAD DUP1 SWAP2 SUB SWAP1 REVERT JUMPDEST SWAP5 SWAP4 POP POP POP POP JUMP JUMPDEST PUSH2 0x857 PUSH2 0xE0B JUMP JUMPDEST PUSH1 0x0 PUSH1 0x20 DUP4 PUSH2 0x866 SWAP2 SWAP1 PUSH2 0x1554 JUMP JUMPDEST EQ PUSH2 0x892 JUMPI PUSH1 0x20 DUP3 PUSH2 0x878 SWAP2 SWAP1 PUSH2 0x1554 JUMP JUMPDEST PUSH1 0x20 PUSH2 0x884 SWAP2 SWAP1 PUSH2 0x1401 JUMP JUMPDEST DUP3 PUSH2 0x88F SWAP2 SWAP1 PUSH2 0x114C JUMP JUMPDEST SWAP2 POP JUMPDEST DUP2 DUP4 PUSH1 0x20 ADD DUP2 DUP2 MSTORE POP POP PUSH1 0x40 MLOAD DUP1 DUP5 MSTORE PUSH1 0x0 DUP2 MSTORE DUP3 DUP2 ADD PUSH1 0x20 ADD PUSH1 0x40 MSTORE POP DUP3 SWAP1 POP SWAP3 SWAP2 POP POP JUMP JUMPDEST PUSH1 0x17 DUP2 PUSH8 0xFFFFFFFFFFFFFFFF AND GT PUSH2 0x8F0 JUMPI PUSH2 0x8EA DUP2 PUSH1 0x5 DUP5 PUSH1 0xFF AND SWAP1 SHL PUSH1 0xFF AND OR DUP5 PUSH2 0xB23 SWAP1 SWAP2 SWAP1 PUSH4 0xFFFFFFFF AND JUMP JUMPDEST POP PUSH2 0xA39 JUMP JUMPDEST PUSH1 0xFF DUP2 PUSH8 0xFFFFFFFFFFFFFFFF AND GT PUSH2 0x946 JUMPI PUSH2 0x91F PUSH1 0x18 PUSH1 0x5 DUP5 PUSH1 0xFF AND SWAP1 SHL OR DUP5 PUSH2 0xB23 SWAP1 SWAP2 SWAP1 PUSH4 0xFFFFFFFF AND JUMP JUMPDEST POP PUSH2 0x940 DUP2 PUSH8 0xFFFFFFFFFFFFFFFF AND PUSH1 0x1 DUP6 PUSH2 0xB43 SWAP1 SWAP3 SWAP2 SWAP1 PUSH4 0xFFFFFFFF AND JUMP JUMPDEST POP PUSH2 0xA38 JUMP JUMPDEST PUSH2 0xFFFF DUP2 PUSH8 0xFFFFFFFFFFFFFFFF AND GT PUSH2 0x99D JUMPI PUSH2 0x976 PUSH1 0x19 PUSH1 0x5 DUP5 PUSH1 0xFF AND SWAP1 SHL OR DUP5 PUSH2 0xB23 SWAP1 SWAP2 SWAP1 PUSH4 0xFFFFFFFF AND JUMP JUMPDEST POP PUSH2 0x997 DUP2 PUSH8 0xFFFFFFFFFFFFFFFF AND PUSH1 0x2 DUP6 PUSH2 0xB43 SWAP1 SWAP3 SWAP2 SWAP1 PUSH4 0xFFFFFFFF AND JUMP JUMPDEST POP PUSH2 0xA37 JUMP JUMPDEST PUSH4 0xFFFFFFFF DUP2 PUSH8 0xFFFFFFFFFFFFFFFF AND GT PUSH2 0x9F6 JUMPI PUSH2 0x9CF PUSH1 0x1A PUSH1 0x5 DUP5 PUSH1 0xFF AND SWAP1 SHL OR DUP5 PUSH2 0xB23 SWAP1 SWAP2 SWAP1 PUSH4 0xFFFFFFFF AND JUMP JUMPDEST POP PUSH2 0x9F0 DUP2 PUSH8 0xFFFFFFFFFFFFFFFF AND PUSH1 0x4 DUP6 PUSH2 0xB43 SWAP1 SWAP3 SWAP2 SWAP1 PUSH4 0xFFFFFFFF AND JUMP JUMPDEST POP PUSH2 0xA36 JUMP JUMPDEST PUSH2 0xA13 PUSH1 0x1B PUSH1 0x5 DUP5 PUSH1 0xFF AND SWAP1 SHL OR DUP5 PUSH2 0xB23 SWAP1 SWAP2 SWAP1 PUSH4 0xFFFFFFFF AND JUMP JUMPDEST POP PUSH2 0xA34 DUP2 PUSH8 0xFFFFFFFFFFFFFFFF AND PUSH1 0x8 DUP6 PUSH2 0xB43 SWAP1 SWAP3 SWAP2 SWAP1 PUSH4 0xFFFFFFFF AND JUMP JUMPDEST POP JUMPDEST JUMPDEST JUMPDEST JUMPDEST POP POP POP JUMP JUMPDEST PUSH2 0xA46 PUSH2 0xE0B JUMP JUMPDEST PUSH2 0xA58 DUP4 DUP5 PUSH1 0x0 ADD MLOAD MLOAD DUP5 DUP6 MLOAD PUSH2 0xB65 JUMP JUMPDEST SWAP1 POP SWAP3 SWAP2 POP POP JUMP JUMPDEST PUSH2 0xA7E PUSH1 0x3 PUSH1 0x5 PUSH1 0x6 PUSH1 0xFF AND SWAP1 SHL OR DUP4 PUSH2 0xB23 SWAP1 SWAP2 SWAP1 PUSH4 0xFFFFFFFF AND JUMP JUMPDEST POP PUSH2 0xAD3 DUP3 DUP3 PUSH32 0xFFFFFFFFFFFFFFFFFFFFFFFFFFFFFFFFFFFFFFFFFFFFFFFFFFFFFFFFFFFFFFFF PUSH2 0xAAF SWAP2 SWAP1 PUSH2 0x136D JUMP JUMPDEST PUSH1 0x40 MLOAD PUSH1 0x20 ADD PUSH2 0xABF SWAP2 SWAP1 PUSH2 0x1104 JUMP JUMPDEST PUSH1 0x40 MLOAD PUSH1 0x20 DUP2 DUP4 SUB SUB DUP2 MSTORE SWAP1 PUSH1 0x40 MSTORE PUSH2 0xC54 JUMP JUMPDEST POP POP JUMP JUMPDEST PUSH2 0xAF5 PUSH1 0x2 PUSH1 0x5 PUSH1 0x6 PUSH1 0xFF AND SWAP1 SHL OR DUP4 PUSH2 0xB23 SWAP1 SWAP2 SWAP1 PUSH4 0xFFFFFFFF AND JUMP JUMPDEST POP PUSH2 0xB1F DUP3 DUP3 PUSH1 0x40 MLOAD PUSH1 0x20 ADD PUSH2 0xB0B SWAP2 SWAP1 PUSH2 0x1104 JUMP JUMPDEST PUSH1 0x40 MLOAD PUSH1 0x20 DUP2 DUP4 SUB SUB DUP2 MSTORE SWAP1 PUSH1 0x40 MSTORE PUSH2 0xC54 JUMP JUMPDEST POP POP JUMP JUMPDEST PUSH2 0xB2B PUSH2 0xE0B JUMP JUMPDEST PUSH2 0xB3B DUP4 DUP5 PUSH1 0x0 ADD MLOAD MLOAD DUP5 PUSH2 0xC79 JUMP JUMPDEST SWAP1 POP SWAP3 SWAP2 POP POP JUMP JUMPDEST PUSH2 0xB4B PUSH2 0xE0B JUMP JUMPDEST PUSH2 0xB5C DUP5 DUP6 PUSH1 0x0 ADD MLOAD MLOAD DUP6 DUP6 PUSH2 0xCD0 JUMP JUMPDEST SWAP1 POP SWAP4 SWAP3 POP POP POP JUMP JUMPDEST PUSH2 0xB6D PUSH2 0xE0B JUMP JUMPDEST DUP3 MLOAD DUP3 GT ISZERO PUSH2 0xB7B JUMPI PUSH1 0x0 DUP1 REVERT JUMPDEST DUP5 PUSH1 0x20 ADD MLOAD DUP3 DUP6 PUSH2 0xB8C SWAP2 SWAP1 PUSH2 0x114C JUMP JUMPDEST GT ISZERO PUSH2 0xBC1 JUMPI PUSH2 0xBC0 DUP6 PUSH1 0x2 PUSH2 0xBB1 DUP9 PUSH1 0x20 ADD MLOAD DUP9 DUP8 PUSH2 0xBAC SWAP2 SWAP1 PUSH2 0x114C JUMP JUMPDEST PUSH2 0xD5E JUMP JUMPDEST PUSH2 0xBBB SWAP2 SWAP1 PUSH2 0x1313 JUMP JUMPDEST PUSH2 0xD7A JUMP JUMPDEST JUMPDEST PUSH1 0x0 DUP1 DUP7 MLOAD DUP1 MLOAD DUP8 PUSH1 0x20 DUP4 ADD ADD SWAP4 POP DUP1 DUP9 DUP8 ADD GT ISZERO PUSH2 0xBE0 JUMPI DUP8 DUP7 ADD DUP3 MSTORE JUMPDEST PUSH1 0x20 DUP8 ADD SWAP3 POP POP POP JUMPDEST PUSH1 0x20 DUP5 LT PUSH2 0xC27 JUMPI DUP1 MLOAD DUP3 MSTORE PUSH1 0x20 DUP3 PUSH2 0xC02 SWAP2 SWAP1 PUSH2 0x114C JUMP JUMPDEST SWAP2 POP PUSH1 0x20 DUP2 PUSH2 0xC11 SWAP2 SWAP1 PUSH2 0x114C JUMP JUMPDEST SWAP1 POP PUSH1 0x20 DUP5 PUSH2 0xC20 SWAP2 SWAP1 PUSH2 0x1401 JUMP JUMPDEST SWAP4 POP PUSH2 0xBE9 JUMP JUMPDEST PUSH1 0x0 PUSH1 0x1 DUP6 PUSH1 0x20 SUB PUSH2 0x100 EXP SUB SWAP1 POP DUP1 NOT DUP3 MLOAD AND DUP2 DUP5 MLOAD AND DUP2 DUP2 OR DUP6 MSTORE POP POP POP DUP7 SWAP3 POP POP POP SWAP5 SWAP4 POP POP POP POP JUMP JUMPDEST PUSH2 0xC61 DUP3 PUSH1 0x2 DUP4 MLOAD PUSH2 0x8B9 JUMP JUMPDEST PUSH2 0xC74 DUP2 DUP4 PUSH2 0xA3E SWAP1 SWAP2 SWAP1 PUSH4 0xFFFFFFFF AND JUMP JUMPDEST POP POP POP JUMP JUMPDEST PUSH2 0xC81 PUSH2 0xE0B JUMP JUMPDEST DUP4 PUSH1 0x20 ADD MLOAD DUP4 LT PUSH2 0xCA7 JUMPI PUSH2 0xCA6 DUP5 PUSH1 0x2 DUP7 PUSH1 0x20 ADD MLOAD PUSH2 0xCA1 SWAP2 SWAP1 PUSH2 0x1313 JUMP JUMPDEST PUSH2 0xD7A JUMP JUMPDEST JUMPDEST DUP4 MLOAD DUP1 MLOAD PUSH1 0x20 DUP6 DUP4 ADD ADD DUP5 DUP2 MSTORE8 DUP2 DUP7 EQ ISZERO PUSH2 0xCC3 JUMPI PUSH1 0x1 DUP3 ADD DUP4 MSTORE JUMPDEST POP POP POP DUP4 SWAP1 POP SWAP4 SWAP3 POP POP POP JUMP JUMPDEST PUSH2 0xCD8 PUSH2 0xE0B JUMP JUMPDEST DUP5 PUSH1 0x20 ADD MLOAD DUP5 DUP4 PUSH2 0xCE9 SWAP2 SWAP1 PUSH2 0x114C JUMP JUMPDEST GT ISZERO PUSH2 0xD11 JUMPI PUSH2 0xD10 DUP6 PUSH1 0x2 DUP7 DUP6 PUSH2 0xD01 SWAP2 SWAP1 PUSH2 0x114C JUMP JUMPDEST PUSH2 0xD0B SWAP2 SWAP1 PUSH2 0x1313 JUMP JUMPDEST PUSH2 0xD7A JUMP JUMPDEST JUMPDEST PUSH1 0x0 PUSH1 0x1 DUP4 PUSH2 0x100 PUSH2 0xD23 SWAP2 SWAP1 PUSH2 0x11F5 JUMP JUMPDEST PUSH2 0xD2D SWAP2 SWAP1 PUSH2 0x1401 JUMP JUMPDEST SWAP1 POP DUP6 MLOAD DUP4 DUP7 DUP3 ADD ADD DUP6 DUP4 NOT DUP3 MLOAD AND OR DUP2 MSTORE DUP2 MLOAD DUP6 DUP9 ADD GT ISZERO PUSH2 0xD50 JUMPI DUP5 DUP8 ADD DUP3 MSTORE JUMPDEST POP POP DUP6 SWAP2 POP POP SWAP5 SWAP4 POP POP POP POP JUMP JUMPDEST PUSH1 0x0 DUP2 DUP4 GT ISZERO PUSH2 0xD70 JUMPI DUP3 SWAP1 POP PUSH2 0xD74 JUMP JUMPDEST DUP2 SWAP1 POP JUMPDEST SWAP3 SWAP2 POP POP JUMP JUMPDEST PUSH1 0x0 DUP3 PUSH1 0x0 ADD MLOAD SWAP1 POP PUSH2 0xD8D DUP4 DUP4 PUSH2 0x84F JUMP JUMPDEST POP PUSH2 0xD98 DUP4 DUP3 PUSH2 0xA3E JUMP JUMPDEST POP POP POP POP JUMP JUMPDEST PUSH1 0x40 MLOAD DUP1 PUSH1 0xA0 ADD PUSH1 0x40 MSTORE DUP1 PUSH1 0x0 DUP1 NOT AND DUP2 MSTORE PUSH1 0x20 ADD PUSH1 0x0 PUSH20 0xFFFFFFFFFFFFFFFFFFFFFFFFFFFFFFFFFFFFFFFF AND DUP2 MSTORE PUSH1 0x20 ADD PUSH1 0x0 PUSH28 0xFFFFFFFFFFFFFFFFFFFFFFFFFFFFFFFFFFFFFFFFFFFFFFFFFFFFFFFF NOT AND DUP2 MSTORE PUSH1 0x20 ADD PUSH1 0x0 DUP2 MSTORE PUSH1 0x20 ADD PUSH2 0xE05 PUSH2 0xE0B JUMP JUMPDEST DUP2 MSTORE POP SWAP1 JUMP JUMPDEST PUSH1 0x40 MLOAD DUP1 PUSH1 0x40 ADD PUSH1 0x40 MSTORE DUP1 PUSH1 0x60 DUP2 MSTORE PUSH1 0x20 ADD PUSH1 0x0 DUP2 MSTORE POP SWAP1 JUMP JUMPDEST PUSH1 0x0 DUP2 MLOAD SWAP1 POP PUSH2 0xE34 DUP2 PUSH2 0x16B1 JUMP JUMPDEST SWAP3 SWAP2 POP POP JUMP JUMPDEST PUSH1 0x0 DUP2 CALLDATALOAD SWAP1 POP PUSH2 0xE49 DUP2 PUSH2 0x16C8 JUMP JUMPDEST SWAP3 SWAP2 POP POP JUMP JUMPDEST PUSH1 0x0 DUP2 CALLDATALOAD SWAP1 POP PUSH2 0xE5E DUP2 PUSH2 0x16DF JUMP JUMPDEST SWAP3 SWAP2 POP POP JUMP JUMPDEST PUSH1 0x0 PUSH1 0x20 DUP3 DUP5 SUB SLT ISZERO PUSH2 0xE7A JUMPI PUSH2 0xE79 PUSH2 0x15E3 JUMP JUMPDEST JUMPDEST PUSH1 0x0 PUSH2 0xE88 DUP5 DUP3 DUP6 ADD PUSH2 0xE25 JUMP JUMPDEST SWAP2 POP POP SWAP3 SWAP2 POP POP JUMP JUMPDEST PUSH1 0x0 DUP1 PUSH1 0x40 DUP4 DUP6 SUB SLT ISZERO PUSH2 0xEA8 JUMPI PUSH2 0xEA7 PUSH2 0x15E3 JUMP JUMPDEST JUMPDEST PUSH1 0x0 PUSH2 0xEB6 DUP6 DUP3 DUP7 ADD PUSH2 0xE3A JUMP JUMPDEST SWAP3 POP POP PUSH1 0x20 PUSH2 0xEC7 DUP6 DUP3 DUP7 ADD PUSH2 0xE4F JUMP JUMPDEST SWAP2 POP POP SWAP3 POP SWAP3 SWAP1 POP JUMP JUMPDEST PUSH2 0xEDA DUP2 PUSH2 0x1435 JUMP JUMPDEST DUP3 MSTORE POP POP JUMP JUMPDEST PUSH2 0xEE9 DUP2 PUSH2 0x1453 JUMP JUMPDEST DUP3 MSTORE POP POP JUMP JUMPDEST PUSH2 0xEF8 DUP2 PUSH2 0x145D JUMP JUMPDEST DUP3 MSTORE POP POP JUMP JUMPDEST PUSH1 0x0 PUSH2 0xF09 DUP3 PUSH2 0x111F JUMP JUMPDEST PUSH2 0xF13 DUP2 DUP6 PUSH2 0x112A JUMP JUMPDEST SWAP4 POP PUSH2 0xF23 DUP2 DUP6 PUSH1 0x20 DUP7 ADD PUSH2 0x14F3 JUMP JUMPDEST PUSH2 0xF2C DUP2 PUSH2 0x15E8 JUMP JUMPDEST DUP5 ADD SWAP2 POP POP SWAP3 SWAP2 POP POP JUMP JUMPDEST PUSH2 0xF48 PUSH2 0xF43 DUP3 PUSH2 0x14BD JUMP JUMPDEST PUSH2 0x1526 JUMP JUMPDEST DUP3 MSTORE POP POP JUMP JUMPDEST PUSH1 0x0 PUSH2 0xF5B PUSH1 0x23 DUP4 PUSH2 0x113B JUMP JUMPDEST SWAP2 POP PUSH2 0xF66 DUP3 PUSH2 0x1613 JUMP JUMPDEST PUSH1 0x40 DUP3 ADD SWAP1 POP SWAP2 SWAP1 POP JUMP JUMPDEST PUSH1 0x0 PUSH2 0xF7E PUSH1 0x28 DUP4 PUSH2 0x113B JUMP JUMPDEST SWAP2 POP PUSH2 0xF89 DUP3 PUSH2 0x1662 JUMP JUMPDEST PUSH1 0x40 DUP3 ADD SWAP1 POP SWAP2 SWAP1 POP JUMP JUMPDEST PUSH2 0xF9D DUP2 PUSH2 0x14B3 JUMP JUMPDEST DUP3 MSTORE POP POP JUMP JUMPDEST PUSH2 0xFB4 PUSH2 0xFAF DUP3 PUSH2 0x14B3 JUMP JUMPDEST PUSH2 0x154A JUMP JUMPDEST DUP3 MSTORE POP POP JUMP JUMPDEST PUSH1 0x0 PUSH2 0xFC6 DUP3 DUP6 PUSH2 0xF37 JUMP JUMPDEST PUSH1 0x14 DUP3 ADD SWAP2 POP PUSH2 0xFD6 DUP3 DUP5 PUSH2 0xFA3 JUMP JUMPDEST PUSH1 0x20 DUP3 ADD SWAP2 POP DUP2 SWAP1 POP SWAP4 SWAP3 POP POP POP JUMP JUMPDEST PUSH1 0x0 PUSH2 0x100 DUP3 ADD SWAP1 POP PUSH2 0xFFC PUSH1 0x0 DUP4 ADD DUP12 PUSH2 0xED1 JUMP JUMPDEST PUSH2 0x1009 PUSH1 0x20 DUP4 ADD DUP11 PUSH2 0xF94 JUMP JUMPDEST PUSH2 0x1016 PUSH1 0x40 DUP4 ADD DUP10 PUSH2 0xEE0 JUMP JUMPDEST PUSH2 0x1023 PUSH1 0x60 DUP4 ADD DUP9 PUSH2 0xED1 JUMP JUMPDEST PUSH2 0x1030 PUSH1 0x80 DUP4 ADD DUP8 PUSH2 0xEEF JUMP JUMPDEST PUSH2 0x103D PUSH1 0xA0 DUP4 ADD DUP7 PUSH2 0xF94 JUMP JUMPDEST PUSH2 0x104A PUSH1 0xC0 DUP4 ADD DUP6 PUSH2 0xF94 JUMP JUMPDEST DUP2 DUP2 SUB PUSH1 0xE0 DUP4 ADD MSTORE PUSH2 0x105C DUP2 DUP5 PUSH2 0xEFE JUMP JUMPDEST SWAP1 POP SWAP10 SWAP9 POP POP POP POP POP POP POP POP POP JUMP JUMPDEST PUSH1 0x0 PUSH1 0x60 DUP3 ADD SWAP1 POP PUSH2 0x1080 PUSH1 0x0 DUP4 ADD DUP7 PUSH2 0xED1 JUMP JUMPDEST PUSH2 0x108D PUSH1 0x20 DUP4 ADD DUP6 PUSH2 0xF94 JUMP JUMPDEST DUP2 DUP2 SUB PUSH1 0x40 DUP4 ADD MSTORE PUSH2 0x109F DUP2 DUP5 PUSH2 0xEFE JUMP JUMPDEST SWAP1 POP SWAP5 SWAP4 POP POP POP POP JUMP JUMPDEST PUSH1 0x0 PUSH1 0x20 DUP3 ADD SWAP1 POP PUSH2 0x10BE PUSH1 0x0 DUP4 ADD DUP5 PUSH2 0xEE0 JUMP JUMPDEST SWAP3 SWAP2 POP POP JUMP JUMPDEST PUSH1 0x0 PUSH1 0x20 DUP3 ADD SWAP1 POP DUP2 DUP2 SUB PUSH1 0x0 DUP4 ADD MSTORE PUSH2 0x10DD DUP2 PUSH2 0xF4E JUMP JUMPDEST SWAP1 POP SWAP2 SWAP1 POP JUMP JUMPDEST PUSH1 0x0 PUSH1 0x20 DUP3 ADD SWAP1 POP DUP2 DUP2 SUB PUSH1 0x0 DUP4 ADD MSTORE PUSH2 0x10FD DUP2 PUSH2 0xF71 JUMP JUMPDEST SWAP1 POP SWAP2 SWAP1 POP JUMP JUMPDEST PUSH1 0x0 PUSH1 0x20 DUP3 ADD SWAP1 POP PUSH2 0x1119 PUSH1 0x0 DUP4 ADD DUP5 PUSH2 0xF94 JUMP JUMPDEST SWAP3 SWAP2 POP POP JUMP JUMPDEST PUSH1 0x0 DUP2 MLOAD SWAP1 POP SWAP2 SWAP1 POP JUMP JUMPDEST PUSH1 0x0 DUP3 DUP3 MSTORE PUSH1 0x20 DUP3 ADD SWAP1 POP SWAP3 SWAP2 POP POP JUMP JUMPDEST PUSH1 0x0 DUP3 DUP3 MSTORE PUSH1 0x20 DUP3 ADD SWAP1 POP SWAP3 SWAP2 POP POP JUMP JUMPDEST PUSH1 0x0 PUSH2 0x1157 DUP3 PUSH2 0x14B3 JUMP JUMPDEST SWAP2 POP PUSH2 0x1162 DUP4 PUSH2 0x14B3 JUMP JUMPDEST SWAP3 POP DUP3 PUSH32 0xFFFFFFFFFFFFFFFFFFFFFFFFFFFFFFFFFFFFFFFFFFFFFFFFFFFFFFFFFFFFFFFF SUB DUP3 GT ISZERO PUSH2 0x1197 JUMPI PUSH2 0x1196 PUSH2 0x1585 JUMP JUMPDEST JUMPDEST DUP3 DUP3 ADD SWAP1 POP SWAP3 SWAP2 POP POP JUMP JUMPDEST PUSH1 0x0 DUP1 DUP3 SWAP2 POP DUP4 SWAP1 POP JUMPDEST PUSH1 0x1 DUP6 GT ISZERO PUSH2 0x11EC JUMPI DUP1 DUP7 DIV DUP2 GT ISZERO PUSH2 0x11C8 JUMPI PUSH2 0x11C7 PUSH2 0x1585 JUMP JUMPDEST JUMPDEST PUSH1 0x1 DUP6 AND ISZERO PUSH2 0x11D7 JUMPI DUP1 DUP3 MUL SWAP2 POP JUMPDEST DUP1 DUP2 MUL SWAP1 POP PUSH2 0x11E5 DUP6 PUSH2 0x1606 JUMP JUMPDEST SWAP5 POP PUSH2 0x11AC JUMP JUMPDEST SWAP5 POP SWAP5 SWAP3 POP POP POP JUMP JUMPDEST PUSH1 0x0 PUSH2 0x1200 DUP3 PUSH2 0x14B3 JUMP JUMPDEST SWAP2 POP PUSH2 0x120B DUP4 PUSH2 0x14B3 JUMP JUMPDEST SWAP3 POP PUSH2 0x1238 PUSH32 0xFFFFFFFFFFFFFFFFFFFFFFFFFFFFFFFFFFFFFFFFFFFFFFFFFFFFFFFFFFFFFFFF DUP5 DUP5 PUSH2 0x1240 JUMP JUMPDEST SWAP1 POP SWAP3 SWAP2 POP POP JUMP JUMPDEST PUSH1 0x0 DUP3 PUSH2 0x1250 JUMPI PUSH1 0x1 SWAP1 POP PUSH2 0x130C JUMP JUMPDEST DUP2 PUSH2 0x125E JUMPI PUSH1 0x0 SWAP1 POP PUSH2 0x130C JUMP JUMPDEST DUP2 PUSH1 0x1 DUP2 EQ PUSH2 0x1274 JUMPI PUSH1 0x2 DUP2 EQ PUSH2 0x127E JUMPI PUSH2 0x12AD JUMP JUMPDEST PUSH1 0x1 SWAP2 POP POP PUSH2 0x130C JUMP JUMPDEST PUSH1 0xFF DUP5 GT ISZERO PUSH2 0x1290 JUMPI PUSH2 0x128F PUSH2 0x1585 JUMP JUMPDEST JUMPDEST DUP4 PUSH1 0x2 EXP SWAP2 POP DUP5 DUP3 GT ISZERO PUSH2 0x12A7 JUMPI PUSH2 0x12A6 PUSH2 0x1585 JUMP JUMPDEST JUMPDEST POP PUSH2 0x130C JUMP JUMPDEST POP PUSH1 0x20 DUP4 LT PUSH2 0x133 DUP4 LT AND PUSH1 0x4E DUP5 LT PUSH1 0xB DUP5 LT AND OR ISZERO PUSH2 0x12E2 JUMPI DUP3 DUP3 EXP SWAP1 POP DUP4 DUP2 GT ISZERO PUSH2 0x12DD JUMPI PUSH2 0x12DC PUSH2 0x1585 JUMP JUMPDEST JUMPDEST PUSH2 0x130C JUMP JUMPDEST PUSH2 0x12EF DUP5 DUP5 DUP5 PUSH1 0x1 PUSH2 0x11A2 JUMP JUMPDEST SWAP3 POP SWAP1 POP DUP2 DUP5 DIV DUP2 GT ISZERO PUSH2 0x1306 JUMPI PUSH2 0x1305 PUSH2 0x1585 JUMP JUMPDEST JUMPDEST DUP2 DUP2 MUL SWAP1 POP JUMPDEST SWAP4 SWAP3 POP POP POP JUMP JUMPDEST PUSH1 0x0 PUSH2 0x131E DUP3 PUSH2 0x14B3 JUMP JUMPDEST SWAP2 POP PUSH2 0x1329 DUP4 PUSH2 0x14B3 JUMP JUMPDEST SWAP3 POP DUP2 PUSH32 0xFFFFFFFFFFFFFFFFFFFFFFFFFFFFFFFFFFFFFFFFFFFFFFFFFFFFFFFFFFFFFFFF DIV DUP4 GT DUP3 ISZERO ISZERO AND ISZERO PUSH2 0x1362 JUMPI PUSH2 0x1361 PUSH2 0x1585 JUMP JUMPDEST JUMPDEST DUP3 DUP3 MUL SWAP1 POP SWAP3 SWAP2 POP POP JUMP JUMPDEST PUSH1 0x0 PUSH2 0x1378 DUP3 PUSH2 0x1489 JUMP JUMPDEST SWAP2 POP PUSH2 0x1383 DUP4 PUSH2 0x1489 JUMP JUMPDEST SWAP3 POP DUP3 PUSH32 0x8000000000000000000000000000000000000000000000000000000000000000 ADD DUP3 SLT PUSH1 0x0 DUP5 SLT ISZERO AND ISZERO PUSH2 0x13BE JUMPI PUSH2 0x13BD PUSH2 0x1585 JUMP JUMPDEST JUMPDEST DUP3 PUSH32 0x7FFFFFFFFFFFFFFFFFFFFFFFFFFFFFFFFFFFFFFFFFFFFFFFFFFFFFFFFFFFFFFF ADD DUP3 SGT PUSH1 0x0 DUP5 SLT AND ISZERO PUSH2 0x13F6 JUMPI PUSH2 0x13F5 PUSH2 0x1585 JUMP JUMPDEST JUMPDEST DUP3 DUP3 SUB SWAP1 POP SWAP3 SWAP2 POP POP JUMP JUMPDEST PUSH1 0x0 PUSH2 0x140C DUP3 PUSH2 0x14B3 JUMP JUMPDEST SWAP2 POP PUSH2 0x1417 DUP4 PUSH2 0x14B3 JUMP JUMPDEST SWAP3 POP DUP3 DUP3 LT ISZERO PUSH2 0x142A JUMPI PUSH2 0x1429 PUSH2 0x1585 JUMP JUMPDEST JUMPDEST DUP3 DUP3 SUB SWAP1 POP SWAP3 SWAP2 POP POP JUMP JUMPDEST PUSH1 0x0 PUSH2 0x1440 DUP3 PUSH2 0x1493 JUMP JUMPDEST SWAP1 POP SWAP2 SWAP1 POP JUMP JUMPDEST PUSH1 0x0 DUP2 ISZERO ISZERO SWAP1 POP SWAP2 SWAP1 POP JUMP JUMPDEST PUSH1 0x0 DUP2 SWAP1 POP SWAP2 SWAP1 POP JUMP JUMPDEST PUSH1 0x0 PUSH32 0xFFFFFFFF00000000000000000000000000000000000000000000000000000000 DUP3 AND SWAP1 POP SWAP2 SWAP1 POP JUMP JUMPDEST PUSH1 0x0 DUP2 SWAP1 POP SWAP2 SWAP1 POP JUMP JUMPDEST PUSH1 0x0 PUSH20 0xFFFFFFFFFFFFFFFFFFFFFFFFFFFFFFFFFFFFFFFF DUP3 AND SWAP1 POP SWAP2 SWAP1 POP JUMP JUMPDEST PUSH1 0x0 DUP2 SWAP1 POP SWAP2 SWAP1 POP JUMP JUMPDEST PUSH1 0x0 PUSH2 0x14C8 DUP3 PUSH2 0x14CF JUMP JUMPDEST SWAP1 POP SWAP2 SWAP1 POP JUMP JUMPDEST PUSH1 0x0 PUSH2 0x14DA DUP3 PUSH2 0x14E1 JUMP JUMPDEST SWAP1 POP SWAP2 SWAP1 POP JUMP JUMPDEST PUSH1 0x0 PUSH2 0x14EC DUP3 PUSH2 0x1493 JUMP JUMPDEST SWAP1 POP SWAP2 SWAP1 POP JUMP JUMPDEST PUSH1 0x0 JUMPDEST DUP4 DUP2 LT ISZERO PUSH2 0x1511 JUMPI DUP1 DUP3 ADD MLOAD DUP2 DUP5 ADD MSTORE PUSH1 0x20 DUP2 ADD SWAP1 POP PUSH2 0x14F6 JUMP JUMPDEST DUP4 DUP2 GT ISZERO PUSH2 0x1520 JUMPI PUSH1 0x0 DUP5 DUP5 ADD MSTORE JUMPDEST POP POP POP POP JUMP JUMPDEST PUSH1 0x0 PUSH2 0x1531 DUP3 PUSH2 0x1538 JUMP JUMPDEST SWAP1 POP SWAP2 SWAP1 POP JUMP JUMPDEST PUSH1 0x0 PUSH2 0x1543 DUP3 PUSH2 0x15F9 JUMP JUMPDEST SWAP1 POP SWAP2 SWAP1 POP JUMP JUMPDEST PUSH1 0x0 DUP2 SWAP1 POP SWAP2 SWAP1 POP JUMP JUMPDEST PUSH1 0x0 PUSH2 0x155F DUP3 PUSH2 0x14B3 JUMP JUMPDEST SWAP2 POP PUSH2 0x156A DUP4 PUSH2 0x14B3 JUMP JUMPDEST SWAP3 POP DUP3 PUSH2 0x157A JUMPI PUSH2 0x1579 PUSH2 0x15B4 JUMP JUMPDEST JUMPDEST DUP3 DUP3 MOD SWAP1 POP SWAP3 SWAP2 POP POP JUMP JUMPDEST PUSH32 0x4E487B7100000000000000000000000000000000000000000000000000000000 PUSH1 0x0 MSTORE PUSH1 0x11 PUSH1 0x4 MSTORE PUSH1 0x24 PUSH1 0x0 REVERT JUMPDEST PUSH32 0x4E487B7100000000000000000000000000000000000000000000000000000000 PUSH1 0x0 MSTORE PUSH1 0x12 PUSH1 0x4 MSTORE PUSH1 0x24 PUSH1 0x0 REVERT JUMPDEST PUSH1 0x0 DUP1 REVERT JUMPDEST PUSH1 0x0 PUSH1 0x1F NOT PUSH1 0x1F DUP4 ADD AND SWAP1 POP SWAP2 SWAP1 POP JUMP JUMPDEST PUSH1 0x0 DUP2 PUSH1 0x60 SHL SWAP1 POP SWAP2 SWAP1 POP JUMP JUMPDEST PUSH1 0x0 DUP2 PUSH1 0x1 SHR SWAP1 POP SWAP2 SWAP1 POP JUMP JUMPDEST PUSH32 0x756E61626C6520746F207472616E73666572416E6443616C6C20746F206F7261 PUSH1 0x0 DUP3 ADD MSTORE PUSH32 0x636C650000000000000000000000000000000000000000000000000000000000 PUSH1 0x20 DUP3 ADD MSTORE POP JUMP JUMPDEST PUSH32 0x536F75726365206D75737420626520746865206F7261636C65206F6620746865 PUSH1 0x0 DUP3 ADD MSTORE PUSH32 0x2072657175657374000000000000000000000000000000000000000000000000 PUSH1 0x20 DUP3 ADD MSTORE POP JUMP JUMPDEST PUSH2 0x16BA DUP2 PUSH2 0x1447 JUMP JUMPDEST DUP2 EQ PUSH2 0x16C5 JUMPI PUSH1 0x0 DUP1 REVERT JUMPDEST POP JUMP JUMPDEST PUSH2 0x16D1 DUP2 PUSH2 0x1453 JUMP JUMPDEST DUP2 EQ PUSH2 0x16DC JUMPI PUSH1 0x0 DUP1 REVERT JUMPDEST POP JUMP JUMPDEST PUSH2 0x16E8 DUP2 PUSH2 0x14B3 JUMP JUMPDEST DUP2 EQ PUSH2 0x16F3 JUMPI PUSH1 0x0 DUP1 REVERT JUMPDEST POP JUMP INVALID PUSH9 0x747470733A2F2F6D69 PUSH15 0x2D6170692E63727970746F636F6D70 PUSH2 0x7265 0x2E PUSH4 0x6F6D2F64 PUSH2 0x7461 0x2F PUSH17 0x726963656D756C746966756C6C3F667379 PUSH14 0x733D455448267473796D733D5553 DIFFICULTY LOG2 PUSH5 0x6970667358 0x22 SLT KECCAK256 0xB6 EXTCODEHASH 0xDC 0xC3 0xC 0xBB 0xE0 GAS DUP14 0xAF 0xCA LOG1 DIV SWAP16 0xD3 0xD5 0xC8 PUSH11 0xBCA5DC691E2728AC165B0A 0xEB 0xCE CALLVALUE PUSH5 0x736F6C6343 STOP ADDMOD SMOD STOP CALLER "},"gasEstimates":{"creation":{"codeDepositCost":"1201000","executionCost":"infinite","totalCost":"infinite"},"external":{"fulfill(bytes32,uint256)":"infinite","requestVolumeData()":"infinite","volume()":"2473","withdrawLink()":"166"}},"methodIdentifiers":{"fulfill(bytes32,uint256)":"4357855e","requestVolumeData()":"6021abac","volume()":"c618a1e4","withdrawLink()":"8dc654a2"}},"storageLayout":{"storage":[{"astId":319,"contract":"contracts/APIConsumer.sol:APIConsumer","label":"s_ens","offset":0,"slot":"0","type":"t_contract(ENSInterface)1078"},{"astId":321,"contract":"contracts/APIConsumer.sol:APIConsumer","label":"s_ensNode","offset":0,"slot":"1","type":"t_bytes32"},{"astId":324,"contract":"contracts/APIConsumer.sol:APIConsumer","label":"s_link","offset":0,"slot":"2","type":"t_contract(LinkTokenInterface)1192"},{"astId":327,"contract":"contracts/APIConsumer.sol:APIConsumer","label":"s_oracle","offset":0,"slot":"3","type":"t_contract(OperatorInterface)1272"},{"astId":330,"contract":"contracts/APIConsumer.sol:APIConsumer","label":"s_requestCount","offset":0,"slot":"4","type":"t_uint256"},{"astId":334,"contract":"contracts/APIConsumer.sol:APIConsumer","label":"s_pendingRequests","offset":0,"slot":"5","type":"t_mapping(t_bytes32,t_address)"},{"astId":2978,"contract":"contracts/APIConsumer.sol:APIConsumer","label":"volume","offset":0,"slot":"6","type":"t_uint256"}],"types":{"t_address":{"encoding":"inplace","label":"address","numberOfBytes":"20"},"t_bytes32":{"encoding":"inplace","label":"bytes32","numberOfBytes":"32"},"t_contract(ENSInterface)1078":{"encoding":"inplace","label":"contract ENSInterface","numberOfBytes":"20"},"t_contract(LinkTokenInterface)1192":{"encoding":"inplace","label":"contract LinkTokenInterface","numberOfBytes":"20"},"t_contract(OperatorInterface)1272":{"encoding":"inplace","label":"contract OperatorInterface","numberOfBytes":"20"},"t_mapping(t_bytes32,t_address)":{"encoding":"mapping","key":"t_bytes32","label":"mapping(bytes32 => address)","numberOfBytes":"32","value":"t_address"},"t_uint256":{"encoding":"inplace","label":"uint256","numberOfBytes":"32"}}},"userdoc":{"kind":"user","methods":{"constructor":{"notice":"Executes once when a contract is created to initialize state variables"},"fulfill(bytes32,uint256)":{"notice":"Receives the response in the form of uint256"},"requestVolumeData()":{"notice":"Creates a Chainlink request to retrieve API response, find the target data, then multiply by 1000000000000000000 (to remove decimal places from data)."},"withdrawLink()":{"notice":"Witdraws LINK from the contract"}},"notice":"An API Consumer contract that makes GET requests to obtain 24h trading volume of ETH in USD","version":1}}}}