{"contracts/PriceConsumerV3.sol":{"PriceConsumerV3":{"abi":[{"inputs":[{"internalType":"address","name":"_priceFeed","type":"address"}],"stateMutability":"nonpayable","type":"constructor"},{"inputs":[],"name":"getLatestPrice","outputs":[{"internalType":"int256","name":"","type":"int256"}],"stateMutability":"view","type":"function"},{"inputs":[],"name":"getPriceFeed","outputs":[{"internalType":"contract AggregatorV3Interface","name":"","type":"address"}],"stateMutability":"view","type":"function"}],"devdoc":{"kind":"dev","methods":{"constructor":{"params":{"_priceFeed":"- Price Feed Address Network: Goerli Aggregator: ETH/USD Address: 0xD4a33860578De61DBAbDc8BFdb98FD742fA7028e"}},"getLatestPrice()":{"returns":{"_0":"latest price"}},"getPriceFeed()":{"returns":{"_0":"Price Feed address"}}},"title":"The PriceConsumerV3 contract","version":1},"evm":{"bytecode":{"linkReferences":{},"object":"60a060405234801561001057600080fd5b5060405161048c38038061048c83398181016040528101906100329190610084565b8073ffffffffffffffffffffffffffffffffffffffff1660808173ffffffffffffffffffffffffffffffffffffffff1660601b81525050506100ff565b60008151905061007e816100e8565b92915050565b60006020828403121561009a576100996100e3565b5b60006100a88482850161006f565b91505092915050565b60006100bc826100c3565b9050919050565b600073ffffffffffffffffffffffffffffffffffffffff82169050919050565b600080fd5b6100f1816100b1565b81146100fc57600080fd5b50565b60805160601c610369610123600039600081816082015261013701526103696000f3fe608060405234801561001057600080fd5b50600436106100365760003560e01c80638e15f4731461003b5780639e87a5cd14610059575b600080fd5b610043610077565b604051610050919061024e565b60405180910390f35b610061610133565b60405161006e9190610233565b60405180910390f35b6000806000806000807f000000000000000000000000000000000000000000000000000000000000000073ffffffffffffffffffffffffffffffffffffffff1663feaf968c6040518163ffffffff1660e01b815260040160a06040518083038186803b1580156100e657600080fd5b505afa1580156100fa573d6000803e3d6000fd5b505050506040513d601f19601f8201168201806040525081019061011e919061019a565b94509450945094509450839550505050505090565b60007f0000000000000000000000000000000000000000000000000000000000000000905090565b60008151905061016a816102ee565b92915050565b60008151905061017f81610305565b92915050565b6000815190506101948161031c565b92915050565b600080600080600060a086880312156101b6576101b56102e9565b5b60006101c488828901610185565b95505060206101d58882890161015b565b94505060406101e688828901610170565b93505060606101f788828901610170565b925050608061020888828901610185565b9150509295509295909350565b61021e816102b3565b82525050565b61022d81610269565b82525050565b60006020820190506102486000830184610215565b92915050565b60006020820190506102636000830184610224565b92915050565b6000819050919050565b600073ffffffffffffffffffffffffffffffffffffffff82169050919050565b6000819050919050565b600069ffffffffffffffffffff82169050919050565b60006102be826102c5565b9050919050565b60006102d0826102d7565b9050919050565b60006102e282610273565b9050919050565b600080fd5b6102f781610269565b811461030257600080fd5b50565b61030e81610293565b811461031957600080fd5b50565b6103258161029d565b811461033057600080fd5b5056fea2646970667358221220ee87fab67fd756c320133a2f49bd862dc84006ce8bb770312279fc1abcc793ca64736f6c63430008070033","opcodes":"PUSH1 0xA0 PUSH1 0x40 MSTORE CALLVALUE DUP1 ISZERO PUSH2 0x10 JUMPI PUSH1 0x0 DUP1 REVERT JUMPDEST POP PUSH1 0x40 MLOAD PUSH2 0x48C CODESIZE SUB DUP1 PUSH2 0x48C DUP4 CODECOPY DUP2 DUP2 ADD PUSH1 0x40 MSTORE DUP2 ADD SWAP1 PUSH2 0x32 SWAP2 SWAP1 PUSH2 0x84 JUMP JUMPDEST DUP1 PUSH20 0xFFFFFFFFFFFFFFFFFFFFFFFFFFFFFFFFFFFFFFFF AND PUSH1 0x80 DUP2 PUSH20 0xFFFFFFFFFFFFFFFFFFFFFFFFFFFFFFFFFFFFFFFF AND PUSH1 0x60 SHL DUP2 MSTORE POP POP POP PUSH2 0xFF JUMP JUMPDEST PUSH1 0x0 DUP2 MLOAD SWAP1 POP PUSH2 0x7E DUP2 PUSH2 0xE8 JUMP JUMPDEST SWAP3 SWAP2 POP POP JUMP JUMPDEST PUSH1 0x0 PUSH1 0x20 DUP3 DUP5 SUB SLT ISZERO PUSH2 0x9A JUMPI PUSH2 0x99 PUSH2 0xE3 JUMP JUMPDEST JUMPDEST PUSH1 0x0 PUSH2 0xA8 DUP5 DUP3 DUP6 ADD PUSH2 0x6F JUMP JUMPDEST SWAP2 POP POP SWAP3 SWAP2 POP POP JUMP JUMPDEST PUSH1 0x0 PUSH2 0xBC DUP3 PUSH2 0xC3 JUMP JUMPDEST SWAP1 POP SWAP2 SWAP1 POP JUMP JUMPDEST PUSH1 0x0 PUSH20 0xFFFFFFFFFFFFFFFFFFFFFFFFFFFFFFFFFFFFFFFF DUP3 AND SWAP1 POP SWAP2 SWAP1 POP JUMP JUMPDEST PUSH1 0x0 DUP1 REVERT JUMPDEST PUSH2 0xF1 DUP2 PUSH2 0xB1 JUMP JUMPDEST DUP2 EQ PUSH2 0xFC JUMPI PUSH1 0x0 DUP1 REVERT JUMPDEST POP JUMP JUMPDEST PUSH1 0x80 MLOAD PUSH1 0x60 SHR PUSH2 0x369 PUSH2 0x123 PUSH1 0x0 CODECOPY PUSH1 0x0 DUP2 DUP2 PUSH1 0x82 ADD MSTORE PUSH2 0x137 ADD MSTORE PUSH2 0x369 PUSH1 0x0 RETURN INVALID PUSH1 0x80 PUSH1 0x40 MSTORE CALLVALUE DUP1 ISZERO PUSH2 0x10 JUMPI PUSH1 0x0 DUP1 REVERT JUMPDEST POP PUSH1 0x4 CALLDATASIZE LT PUSH2 0x36 JUMPI PUSH1 0x0 CALLDATALOAD PUSH1 0xE0 SHR DUP1 PUSH4 0x8E15F473 EQ PUSH2 0x3B JUMPI DUP1 PUSH4 0x9E87A5CD EQ PUSH2 0x59 JUMPI JUMPDEST PUSH1 0x0 DUP1 REVERT JUMPDEST PUSH2 0x43 PUSH2 0x77 JUMP JUMPDEST PUSH1 0x40 MLOAD PUSH2 0x50 SWAP2 SWAP1 PUSH2 0x24E JUMP JUMPDEST PUSH1 0x40 MLOAD DUP1 SWAP2 SUB SWAP1 RETURN JUMPDEST PUSH2 0x61 PUSH2 0x133 JUMP JUMPDEST PUSH1 0x40 MLOAD PUSH2 0x6E SWAP2 SWAP1 PUSH2 0x233 JUMP JUMPDEST PUSH1 0x40 MLOAD DUP1 SWAP2 SUB SWAP1 RETURN JUMPDEST PUSH1 0x0 DUP1 PUSH1 0x0 DUP1 PUSH1 0x0 DUP1 PUSH32 0x0 PUSH20 0xFFFFFFFFFFFFFFFFFFFFFFFFFFFFFFFFFFFFFFFF AND PUSH4 0xFEAF968C PUSH1 0x40 MLOAD DUP2 PUSH4 0xFFFFFFFF AND PUSH1 0xE0 SHL DUP2 MSTORE PUSH1 0x4 ADD PUSH1 0xA0 PUSH1 0x40 MLOAD DUP1 DUP4 SUB DUP2 DUP7 DUP1 EXTCODESIZE ISZERO DUP1 ISZERO PUSH2 0xE6 JUMPI PUSH1 0x0 DUP1 REVERT JUMPDEST POP GAS STATICCALL ISZERO DUP1 ISZERO PUSH2 0xFA JUMPI RETURNDATASIZE PUSH1 0x0 DUP1 RETURNDATACOPY RETURNDATASIZE PUSH1 0x0 REVERT JUMPDEST POP POP POP POP PUSH1 0x40 MLOAD RETURNDATASIZE PUSH1 0x1F NOT PUSH1 0x1F DUP3 ADD AND DUP3 ADD DUP1 PUSH1 0x40 MSTORE POP DUP2 ADD SWAP1 PUSH2 0x11E SWAP2 SWAP1 PUSH2 0x19A JUMP JUMPDEST SWAP5 POP SWAP5 POP SWAP5 POP SWAP5 POP SWAP5 POP DUP4 SWAP6 POP POP POP POP POP POP SWAP1 JUMP JUMPDEST PUSH1 0x0 PUSH32 0x0 SWAP1 POP SWAP1 JUMP JUMPDEST PUSH1 0x0 DUP2 MLOAD SWAP1 POP PUSH2 0x16A DUP2 PUSH2 0x2EE JUMP JUMPDEST SWAP3 SWAP2 POP POP JUMP JUMPDEST PUSH1 0x0 DUP2 MLOAD SWAP1 POP PUSH2 0x17F DUP2 PUSH2 0x305 JUMP JUMPDEST SWAP3 SWAP2 POP POP JUMP JUMPDEST PUSH1 0x0 DUP2 MLOAD SWAP1 POP PUSH2 0x194 DUP2 PUSH2 0x31C JUMP JUMPDEST SWAP3 SWAP2 POP POP JUMP JUMPDEST PUSH1 0x0 DUP1 PUSH1 0x0 DUP1 PUSH1 0x0 PUSH1 0xA0 DUP7 DUP9 SUB SLT ISZERO PUSH2 0x1B6 JUMPI PUSH2 0x1B5 PUSH2 0x2E9 JUMP JUMPDEST JUMPDEST PUSH1 0x0 PUSH2 0x1C4 DUP9 DUP3 DUP10 ADD PUSH2 0x185 JUMP JUMPDEST SWAP6 POP POP PUSH1 0x20 PUSH2 0x1D5 DUP9 DUP3 DUP10 ADD PUSH2 0x15B JUMP JUMPDEST SWAP5 POP POP PUSH1 0x40 PUSH2 0x1E6 DUP9 DUP3 DUP10 ADD PUSH2 0x170 JUMP JUMPDEST SWAP4 POP POP PUSH1 0x60 PUSH2 0x1F7 DUP9 DUP3 DUP10 ADD PUSH2 0x170 JUMP JUMPDEST SWAP3 POP POP PUSH1 0x80 PUSH2 0x208 DUP9 DUP3 DUP10 ADD PUSH2 0x185 JUMP JUMPDEST SWAP2 POP POP SWAP3 SWAP6 POP SWAP3 SWAP6 SWAP1 SWAP4 POP JUMP JUMPDEST PUSH2 0x21E DUP2 PUSH2 0x2B3 JUMP JUMPDEST DUP3 MSTORE POP POP JUMP JUMPDEST PUSH2 0x22D DUP2 PUSH2 0x269 JUMP JUMPDEST DUP3 MSTORE POP POP JUMP JUMPDEST PUSH1 0x0 PUSH1 0x20 DUP3 ADD SWAP1 POP PUSH2 0x248 PUSH1 0x0 DUP4 ADD DUP5 PUSH2 0x215 JUMP JUMPDEST SWAP3 SWAP2 POP POP JUMP JUMPDEST PUSH1 0x0 PUSH1 0x20 DUP3 ADD SWAP1 POP PUSH2 0x263 PUSH1 0x0 DUP4 ADD DUP5 PUSH2 0x224 JUMP JUMPDEST SWAP3 SWAP2 POP POP JUMP JUMPDEST PUSH1 0x0 DUP2 SWAP1 POP SWAP2 SWAP1 POP JUMP JUMPDEST PUSH1 0x0 PUSH20 0xFFFFFFFFFFFFFFFFFFFFFFFFFFFFFFFFFFFFFFFF DUP3 AND SWAP1 POP SWAP2 SWAP1 POP JUMP JUMPDEST PUSH1 0x0 DUP2 SWAP1 POP SWAP2 SWAP1 POP JUMP JUMPDEST PUSH1 0x0 PUSH10 0xFFFFFFFFFFFFFFFFFFFF DUP3 AND SWAP1 POP SWAP2 SWAP1 POP JUMP JUMPDEST PUSH1 0x0 PUSH2 0x2BE DUP3 PUSH2 0x2C5 JUMP JUMPDEST SWAP1 POP SWAP2 SWAP1 POP JUMP JUMPDEST PUSH1 0x0 PUSH2 0x2D0 DUP3 PUSH2 0x2D7 JUMP JUMPDEST SWAP1 POP SWAP2 SWAP1 POP JUMP JUMPDEST PUSH1 0x0 PUSH2 0x2E2 DUP3 PUSH2 0x273 JUMP JUMPDEST SWAP1 POP SWAP2 SWAP1 POP JUMP JUMPDEST PUSH1 0x0 DUP1 REVERT JUMPDEST PUSH2 0x2F7 DUP2 PUSH2 0x269 JUMP JUMPDEST DUP2 EQ PUSH2 0x302 JUMPI PUSH1 0x0 DUP1 REVERT JUMPDEST POP JUMP JUMPDEST PUSH2 0x30E DUP2 PUSH2 0x293 JUMP JUMPDEST DUP2 EQ PUSH2 0x319 JUMPI PUSH1 0x0 DUP1 REVERT JUMPDEST POP JUMP JUMPDEST PUSH2 0x325 DUP2 PUSH2 0x29D JUMP JUMPDEST DUP2 EQ PUSH2 0x330 JUMPI PUSH1 0x0 DUP1 REVERT JUMPDEST POP JUMP INVALID LOG2 PUSH5 0x6970667358 0x22 SLT KECCAK256 0xEE DUP8 STATICCALL 0xB6 PUSH32 0xD756C320133A2F49BD862DC84006CE8BB770312279FC1ABCC793CA64736F6C63 NUMBER STOP ADDMOD SMOD STOP CALLER "},"gasEstimates":{"creation":{"codeDepositCost":"174600","executionCost":"infinite","totalCost":"infinite"},"external":{"getLatestPrice()":"infinite","getPriceFeed()":"infinite"}},"methodIdentifiers":{"getLatestPrice()":"8e15f473","getPriceFeed()":"9e87a5cd"}},"storageLayout":{"storage":[],"types":null},"userdoc":{"kind":"user","methods":{"constructor":{"notice":"Executes once when a contract is created to initialize state variables"},"getLatestPrice()":{"notice":"Returns the latest price"},"getPriceFeed()":{"notice":"Returns the Price Feed address"}},"notice":"Acontract that returns latest price from Chainlink Price Feeds","version":1}}}}